:100000000C9475010C94BD010C9458020C948F0251
:100010000C94C6020C94FD020C94BD010C94BD011D
:100020000C94BD010C94BD010C94BD010C94D50A37
:100030000C94BD010C94FD0F0C94BD010C94BD01FA
:100040000C94BD010C94BD010C9431040C94471028
:100050000C94BD010C94BD010C94BD010C94F201F3
:100060000C94BD010C94BD010C94BD010C94BD0118
:100070000C94BD0188000000000000000400050091
:1000800006000700080009000A000B000C000D0024
:100090000E000F00100011001200130014001500D4
:1000A00016001700180019001A001B001C001D0084
:1000B0001E001F0020002100220023002400250034
:1000C00026002700280029002A002B002C002D00E4
:1000D0002E002F00300031000000330034000000FB
:1000E00036003700380082003A003B003C003D00FB
:1000F0003E003F00400041004200430044004500F4
:1001000046000000000049004A004E004C004D002F
:100110004B004F00500051005200000054005500A9
:1001200056005700580059005A005B005C005D0003
:100130005E005F0060006100620063000000650017
:1001400085006700680069006A0000000000000088
:10015000000000000000000000000000890087008F
:100160008A008B00E000E100E200E3000000E5000F
:10017000E600E700291E1F20212223242526272D03
:100180002E742A2B141A0815171C180C12132F3052
:1001900028041607090A0B0D0E0F3334311D1B06F8
:1001A00019051110363738752C764E4B494C525084
:1001B0004F514A4D56545F6061555C5D5E57595AC8
:1001C0005B6762666377444568696A8070717273C1
:1001D0008080658048463A3B3C3D3E3F404142433B
:1001E000808080807939007A7880807B7F7E8080F3
:1001F000807D8080300350004300390038002000AB
:100200006B006500790062006F006100720064009D
:10021000200063006F006E007600650072007400BD
:100220006500720000000E0374002E006D002E00A9
:100230006B002E0000000403090409023B000201C8
:1002400000A032090400000103010100092111018D
:1002500000012240000705810308000A090401008B
:1002600001030000000921110100012222000705FD
:1002700083032000011201100100000008EDFE01BF
:10028000980101010200010631FF0974A1010975FD
:10029000150026FF009520750881020976150026B5
:1002A000FF00952075089102C005010906A101050E
:1002B0000719E029E71500250195087501810295C8
:1002C0000175088101050819012905950575019138
:1002D000029501750391010507190029FF150026F4
:1002E000FF00950675088100C00011241FBECFEFE6
:1002F000D4E0DEBFCDBF04B603FE28C080918204E7
:1003000090918304A0918404B09185048730904B30
:10031000A740B04BD9F4109282041092830410923B
:1003200084041092850414BE0FB6F894A8958091A9
:100330006000886180936000109260000FBE109290
:10034000010810920008E0E0F8E3099513E0A0E04E
:10035000B3E0EAEAF1E202C005900D92A831B107DC
:10036000D9F724E0A8E1B3E001C01D92A238B2079A
:10037000E1F70E9461060C94D3100C94000083E313
:100380008093CC001092CD00E9ECF0E08081806990
:100390008083808188608083EAECF0E080818063E4
:1003A000808352985A9A78940895209118038091E6
:1003B0001903821769F030E0F901E65EFC4F808195
:1003C0002F5F3F4F2F7033272093180390E008953D
:1003D0008FEF9FEF08959091C80095FFFCCF809319
:1003E000CE0008951F920F920FB60F9211242F93F3
:1003F0003F934F938F939F93EF93FF9380911903B4
:1004000090E09C012F5F3F4F2F70332740911803DE
:10041000421741F03091CE00865E9C4FFC01308344
:1004200020931903FF91EF919F918F914F913F91ED
:100430002F910F900FBE0F901F9018955C9AEFE9C7
:10044000FFE03197F1F700C000000E94EB018FE957
:100450009FE00197F1F700C000005C980895CF93EA
:10046000C0E00E94D501C1508F3F980741F4EFE9E9
:10047000FFE03197F1F700C00000C13091F75C9ABE
:1004800025ED2A95F1F700005C98CF9108950E9420
:1004900000041DBA84E58093690081E080936A00BE
:1004A0008FEF8CBB8EE18DBB789408950C9408047B
:1004B0000F9209B01F921FB61F920F93AF93BF9375
:1004C000A0910203B091030310903B03B0991394E1
:1004D000112051F000B50F700D931D921124109250
:1004E0003B03B33009F4B1E0B09A00BC0FE0002246
:1004F00000918400007F002A0D92009085000D92EB
:10050000A0930203B33009F4B1E0B0930303BF91A9
:10051000AF910F911F901FBE1F900F9018950F92D3
:1005200009B01F921FB61F920F93AF93BF93A09174
:100530000203B091030310903B03B0991394112070
:1005400051F000B50F700D931D92112410923B03D2
:10055000B33009F4B1E0B09A00BC0FE00022009182
:100560008400007F002A0D92009085000D92A093D8
:100570000203B33009F4B1E0B0930303BF91AF912C
:100580000F911F901FBE1F900F9018950F9209B0EA
:100590001F921FB61F920F93AF93BF93A0910203B8
:1005A000B091030310903B03B0991394112051F0C4
:1005B00000B50F700D931D92112410923B03B330C0
:1005C00009F4B1E0B09A00BC0FE000220091840071
:1005D000007F002A0D92009085000D92A0930203E7
:1005E000B33009F4B1E0B0930303BF91AF910F9121
:1005F0001F901FBE1F900F9018950F9209B01F9269
:100600001FB61F920F93AF93BF93A0910203B091B7
:10061000030310903B03B0991394112051F000B5DF
:100620000F700D931D92112410923B03B33009F407
:10063000B1E0B09A00BC0FE0002200918400007F7E
:10064000002A0D92009085000D92A0930203B33012
:1006500009F4B1E0B0930303BF91AF910F911F90E4
:100660001FBE1F900F9018955B9A539A5C9A549AEC
:10067000599A519A5C9A5B9820E52A95F1F75B9A12
:100680000E94BF018FEF90E722E081509040204010
:10069000E1F700C000008FE90E941E020E942F02B5
:1006A0008A3F910539F40E942F02803A910511F496
:1006B0000E942F028CE90E941E020E942F028A3F94
:1006C000910541F480E70E941E020E942F028A3F9A
:1006D000910581F7EBE2F3E0119283E0EB33F80749
:1006E000D9F75C980895FF920F931F93CF93DF93F0
:1006F0000E94D5018C010F3F1007F9F4F0902A03F6
:10070000FF20A1F08DE90E941E020E942F028A3F65
:10071000910549F480912A030E941E020E942F0233
:100720008A3F910579F710922A03F12C8F2DDF91E2
:10073000CF911F910F91FF900895F82E682F677049
:10074000E80183E0D695C7958A95E1F78C2F8F70E5
:1007500007FF1BC00E947C0C882381F0CF70DD272F
:10076000C55DDC4F0770112781E090E001C0880F64
:100770000A95EAF780959881892388835C9A85EDAC
:100780008A95F1F700005C98D1CF0E947C0C811112
:10079000F5CFCF70DD27C55DDC4F0770112721E055
:1007A00030E001C0220F0A95EAF78881822BE5CF5D
:1007B000E82FF0E0E55DFC4F8081089590E780FD33
:1007C00091E790932A0381FF05C080912A038460FA
:1007D00080932A030895CF93C82F982F92959F70E6
:1007E00087E39A3008F480E3890F0E945405CF70A4
:1007F00087E3CA3008F480E38C0FCF910C94540542
:100800001092800081E08093810080936F000895B2
:10081000E0910003F09101038091020390910303A2
:100820008E179F07D1F081810E94EB03E0910003B6
:10083000F091010380810E94EB0380E20E94540545
:1008400080910003909101030296811523E09207A5
:1008500029F09093010380930003089580E091E0D4
:10086000F8CF0F920FB60F9200903B0303940092C3
:100870003B03B1F4AF93BF93A0910203B091030384
:100880000F9300B50F700D9300E00D93A09302033A
:10089000B33009F4B1E0B09303030F91BF91AF916E
:1008A0000F900FBE0F9018958091480408950895F9
:1008B0000895CF93DF9320917904243011F521E03E
:1008C0002093E90021E8215021F03091E80035FF24
:1008D0001BC02091E80025FF14C0EC0150E040E06F
:1008E00068E070E00E940D088091E8008E778093A8
:1008F000E80088E0FE01A0E4B4E001900D928A9542
:10090000E1F7DF91CF910895EFE3F1E03197F1F74F
:1009100000C00000D8CFCF93C0913E03C1110BC0DF
:100920000E943B10643C79408105910520F081E0F4
:1009300080933E03C1E08C2FCF91089508950895D0
:1009400042E061EC81E00E948B0746E261EC83E0CB
:100950000C948B0780917B04833009F452C030F4EF
:10096000813059F1823009F48EC008958A3009F43B
:100970007AC08B3009F460C0893009F041C08091A1
:100980007A048132E9F580917E0490917F04892B6D
:10099000B9F58091E800877F8093E8008091E800B6
:1009A00082FF2AC08091F100809348048091E80082
:1009B0008B778093E8000C94BF0780917A04813A8A
:1009C000F9F48091E800877F8093E80080917E04AD
:1009D00090917F04892B61F468E080E494E070E0FA
:1009E0000E945E088091E8008B778093E80008956C
:1009F00060E090E080E0F3CF809179048111CECF68
:100A0000089580917A04813AD9F780917E0490917B
:100A10007F04892BA9F78091E800877F8093E80005
:100A20008091E80080FFFCCF809114038093F10057
:100A30008091E8008E77BDCF80917A04813201F7F2
:100A400080917E0490917F04892BD1F68091E800FB
:100A5000877F8093E8000E94BF0780917C04809389
:100A600014030C94DB0D80917A04813249F6809155
:100A7000E800877F8093E8000E94BF0780917D0493
:100A800080934904089580917A04813A09F0B8CF9F
:100A90008091E800877F8093E8008091E80080FFE4
:100AA000FCCF80914904C2CFFF920F931F93CF9345
:100AB000DF93D82F0FB607FE46C0809179048430AB
:100AC00079F08091070390E001962091090330E0CE
:100AD00082239323209108032817190609F0CBC01D
:100AE0000E948B0481110FC08091070390E0019652
:100AF0002091090330E082239323209108032817D3
:100B0000190609F0B8C00E942F108C01C091E900AD
:100B1000CF708091EC0080FD37C080E0C82B83E06F
:100B20008093E90085E0F82E8091EB0085FD08C0F8
:100B30008091EB0080FF04C08091EE0087FD44C0EF
:100B4000CF70C093E900E09107038E2F90E00196EB
:100B50002091090330E08223932320910803281772
:100B6000190609F481C08091050390910603E80FEE
:100B7000F92FF11DD083809107038F5F90910903B6
:100B800089238093070370C080E8C8CFE0910503F4
:100B9000F0910603E80FF11D90818F5F209109030A
:100BA0008223809308039093F1008091E80085FDF3
:100BB0000BC08091E80080FF07C08091E8008E772D
:100BC0008093E800F092040380910803909107035A
:100BD000981759F19091E80095FDD8CF80E02CC08E
:100BE0001092F10031C08091070390E001962091AE
:100BF000090330E082239323209108032817190664
:100C000009F09ECF80910403882309F499CF0E94B4
:100C10002F109C018017910709F486CF909104034F
:100C200091509093040389017FCF8091E80085FF64
:100C3000D5CFD093F10081E09091F200992379F023
:100C40009091E80090FF0BC09091E80095FDC8CF0F
:100C50009091E8009E779093E800F0920403882337
:100C600011F2CF70C093E90080E0DF91CF911F9126
:100C70000F91FF900895E091070375CF089580913B
:100C8000480480933F03109248040E947A0C0C940D
:100C9000DB0D0C943F060E94BC0F809177048823E3
:100CA00029F00E94E50F81110C94750708950E94A8
:100CB000F90F80913F038093480408950C945706E0
:100CC0000895CF9384B7877F84BF0FB6F894A89513
:100CD00080916000886180936000109260000FBE78
:100CE00080E890E00FB6F8948093610090936100E3
:100CF0000FBE8AE093E00E949C0B0E9447020E9474
:100D0000E40B0E94720A0E94C50A78940E94E60BC6
:100D100080917904843009F044C00E948B048823B8
:100D200009F43FC00E943E06C3E0809179048530FB
:100D3000E9F10E9456020E94EA0B2091E4003091F2
:100D4000E50080913C0390913D032817390731F16C
:100D50008091E4009091E50090933D0380933C03E3
:100D60000E948B048823D1F0809179048430B1F4FF
:100D70009091E9009F708091EC0080FD1AC080E0A6
:100D8000892BC093E9009091EB0090FF04C09091F3
:100D9000EE0097FD2CC08F708093E9000E94800BBD
:100DA000C4CF0E94800B0E946006B2CF0E944B0607
:100DB000BCCF80E8E5CFE0910503F0910603E90F91
:100DC000F11D20819F5F30910903932390930803C5
:100DD0002093F1009091E80095FD09C09091E80002
:100DE00090FF05C09091E8009E779093E800909165
:100DF000080320910703291721F02091E80025FD21
:100E0000DACF9091F200992331F29091E80090FFAF
:100E1000C2CF9091E80095FD06C09091E8009E77C2
:100E20009093E800B8CF1092F100F3CFE92FFF279D
:100E3000E330F10551F150F4E130F105C1F03297A2
:100E4000F9F0F0E0E0E090E080E015C0E132F1057B
:100E500009F437C0E232F105A1F76115710509F413
:100E60003FC087E892E06130710529F0EACFE2E106
:100E7000F0E085E792E0DA018D939C93CF0108952D
:100E8000EBE3F0E08AE392E0F6CF99278130910519
:100E900089F048F00297A9F6E4EFF1E0E491F0E080
:100EA00084EF91E0E8CFE6E3F2E0E491F0E086E35E
:100EB00092E0E1CFE6E2F2E0E491F0E086E292E057
:100EC000DACFE9E0F0E08CE492E06115710599F287
:100ED000E9E0F0E085E692E06130710561F2B1CFC2
:100EE000E0E4F0E089EA92E0C6CF84E089BD86E0E4
:100EF00089BD09B400FEFDCF8091D8008F7D80931D
:100F0000D8008091E00082608093E0008091E00052
:100F100081FDFCCF0895982F953028F08F70809335
:100F2000E90081E008959093E900242F762F50E0A6
:100F3000981731F07091EC002091ED005091F00085
:100F400021FD02C09F5FE8CF3091EB003E7F3093E0
:100F5000EB003091ED003D7F3093ED003091EB00E0
:100F600031603093EB007093EC002093ED005093D0
:100F7000F0002091EE0027FDE5CF80E008958091FC
:100F80007A0487FF13C08091E80082FF06C0809139
:100F9000E8008B778093E80004C080917904811188
:100FA000F2CF0895809179048823D9F38091E800E5
:100FB00080FFF8CF8091E8008E77ECCF2091E4009D
:100FC0003091E50085E69091EC0090FF06C090918D
:100FD000E80090FF06C080E008959091E80092FD3F
:100FE000FACF90917904992391F0953091F09091F6
:100FF000EB0095FD10C04091E4005091E5002417EE
:10100000350709F381509A01F1F684E0089582E0F2
:10101000089583E0089581E00895AF92BF92CF9242
:10102000DF92FF920F931F93CF93DF936C01EB013D
:101030008A010E94DE07F82E811125C001151105D5
:1010400039F0F80180819181C81BD90BC80ED91ED7
:10105000B12CA12C2097B9F08091E80085FD24C027
:101060008091E8008E778093E8000E94800B011544
:101070001105A1F0F80180819181A80EB91EB182FD
:10108000A08285E0F82E8F2DDF91CF911F910F91D7
:10109000FF90DF90CF90BF90AF9008950E94DE0741
:1010A0008823C1F2F82EEFCFF60181916F01809372
:1010B000F1002197FFEFAF1ABF0ACCCFFC0180915E
:1010C00080049091810486179707A0F0611571053F
:1010D00029F49091E8009E779093E80090E06115E4
:1010E000710551F4911108C08091E80082FF32C06F
:1010F00080E00895BC01F2CF809179048823B1F19A
:101100008530B1F18091E80083FD2EC08091E80028
:1011100082FDEACF8091E80080FFE1CF2091F200CC
:1011200030E06115710519F02830310558F091E073
:101130002830310509F090E02091E8002E772093C7
:10114000E800CDCF81918093F100615071092F5F4C
:101150003F4FE7CF80917904882341F0853041F0FB
:101160008091E80083FFC0CF81E0089582E0089578
:1011700083E00895FC01809180049091810486179A
:101180009707A0F06115710529F48091E8008E772A
:101190008093E80090E06115710551F4911108C049
:1011A0008091E80082FF33C080E00895BC01F2CF57
:1011B000809179048823B9F18530B9F18091E800F4
:1011C00083FD2FC08091E80082FDEACF8091E80086
:1011D00080FFE1CF2091F20030E06115710519F038
:1011E0002830310558F091E02830310509F090E0C1
:1011F0008091E8008E778093E800CDCF8491809332
:10120000F1003196615071092F5F3F4FE6CF809119
:101210007904882341F0853041F08091E80083FF14
:10122000BFCF81E0089582E0089583E008951F9381
:10123000CF93DF93CDB7DEB7AA970FB6F894DEBF92
:101240000FBECDBFEAE7F4E08091F100819324E086
:10125000E238F207C9F70E94AA048091E80083FFF0
:1012600044C080917A0490917B049A3008F03DC08C
:10127000E92FF0E0E25CF64F0C94CD1048096E09BE
:1012800075096E097509CC09EE097509450A520AF6
:10129000803889F0823849F580917E048F708530DE
:1012A00020F58093E9008091EB0085FB882780F989
:1012B0001092E90006C08091760490917704911114
:1012C00082609091E800977F9093E8008093F1000E
:1012D0001092F1008091E8008E772DC0282F2D7F8D
:1012E00021F48823D1F0823059F18091E80083FF06
:1012F0000AC08091E800877F8093E8008091EB002E
:1013000080628093EB00AA960FB6F894DEBF0FBE02
:10131000CDBFDF91CF911F91089580917C048130E2
:1013200021F7933009F080E0809377041092E90070
:101330008091E800877F8093E8000E94BF07D5CFA7
:1013400080917C048111F2CF80917E048F702FEF09
:10135000280F243050F68093E9002091EB0020FF05
:10136000E5CF933031F48091EB0080628093EB0005
:10137000DDCF9091EB0090619093EB0021E030E0A5
:1013800001C0220F8A95EAF72093EA001092EA0042
:101390008091EB008860EACF8111A7CF10917C0487
:1013A0001F778091E3008078812B8093E300809108
:1013B000E800877F8093E8000E94BF078091E800E3
:1013C00080FFFCCF8091E30080688093E30083E09E
:1013D000111101C082E08093790487CF8058823058
:1013E00008F083CF80917C0490917D048C3D23E0B4
:1013F0009207A1F583E08A838AE289834FB7F89444
:10140000DE01139620E03EE051E2E32FF0E050933E
:101410005700E49120FF03C0E295EF703F5FEF704B
:101420008E2F90E0EA30C0F0C7968D939D932F5F8A
:10143000243159F74FBF8091E800877F8093E800FF
:101440006AE270E0CE0101960E945E088091E80099
:101450008B778093E80049CFC096E7CF60917E04F8
:1014600070917F04AE014F5F5F4F0E941607BC0171
:10147000892B09F43ACF9091E800977F9093E80088
:1014800089819A810E94BA08E1CF803809F02DCF76
:101490008091E800877F8093E800809175048093B5
:1014A000F10018CF811121CF90917C04923008F087
:1014B0001CCF8091E800877F8093E80090937504AB
:1014C0000E94BF0780917504882331F084E08093E7
:1014D00079040E94A00409CF8091E30087FDF6CF34
:1014E00081E0F5CF0E94CF0A0E94D20AE0EEF0E040
:1014F000808181608083E8EDF0E080818F77808358
:1015000019BCE3E6F0E0808181608083109278046A
:1015100008950E94CF0A0E94D20A8091D8008F7746
:101520008093D8008091D80080688093D800809103
:10153000D8008F7D8093D80084E089BD86E089BD86
:1015400009B400FEFDCF1092790410927504109238
:1015500077041092760442E060E080E00E948B07FE
:101560008091E1008E7F8093E1008091E2008160B4
:101570008093E2008091E20088608093E200809195
:10158000E0008E7F8093E0000895E3E6F0E0808144
:101590008E7F808381E0809378040C94890A109276
:1015A000E20008951092E10008951F920F920FB685
:1015B0000F9211242F933F934F935F936F937F93D9
:1015C0008F939F93AF93BF93EF93FF938091E1002D
:1015D00082FF0BC08091E20082FF07C08091E10092
:1015E0008B7F8093E1000E947F0B8091E10080FF60
:1015F00019C08091E20080FF15C08091E2008E7FCB
:101600008093E2008091E20080618093E20080910B
:10161000D80080628093D80019BC85E0809379045B
:101620000E9449068091E10084FF28C08091E20079
:1016300084FF24C084E089BD86E089BD09B400FE32
:10164000FDCF8091D8008F7D8093D8008091E100FC
:101650008F7E8093E1008091E2008F7E8093E20094
:101660008091E20081608093E2008091750488237C
:10167000F1F184E0809379040E945E068091E1009C
:1016800083FF24C08091E20083FF20C08091E100AD
:10169000877F8093E10082E0809379041092750443
:1016A0008091E1008E7F8093E1008091E2008E7F47
:1016B0008093E2008091E20080618093E20042E04A
:1016C00060E080E00E948B070E949F04FF91EF91F1
:1016D000BF91AF919F918F917F916F915F914F914A
:1016E0003F912F910F900FBE0F901F9018958091F2
:1016F000E30087FD02C081E0BDCF83E0BBCF08954A
:10170000CF9380917904882399F0C091E900CF703C
:101710008091EC0080FD0EC080E0C82B1092E900A3
:101720008091E80083FD0E941709CF70C093E90003
:10173000CF91089580E8F1CF90934F0480934E04A9
:101740000895E0914E04F0914F04309721F00190FC
:10175000F081E02D099480E00895E0914E04F0912D
:101760004F04309721F00280F381E02D0994089511
:1017700020914C0430914D042817390771F0909353
:101780004D0480934C04E0914E04F0914F04309747
:1017900021F00680F781E02D0994089520914A04F4
:1017A00030914B042817390771F090934B048093C4
:1017B0004A04E0914E04F0914F04309721F00084E8
:1017C000F185E02D099408950C947B0C0E9426105D
:1017D0000C943403BF92CF92DF92EF92FF920F935B
:1017E0001F93CF93DF9300D000D01F92CDB7DEB709
:1017F0000E94730381E5E82E84E0F82E10E0812F2B
:101800000E94D803B82EF701C080C81679F18091E4
:101810006F0481FD0E94900CD12C01E0CB248C2D13
:101820008023F9F0D9821A8391E08B2D802309F46B
:1018300090E09B830E942F108160782F9D838C8382
:1018400049815A816B818D810E94720E49815A8132
:101850006B817C818D810E94A90FF7018081802797
:101860008083D394000FF8E0DF12D9CF1F5F8FEF92
:10187000E81AF80A103109F0C2CF8FEF89838A8302
:101880001B820E942F108160782F9D838C83498159
:101890005A816B818D810E94720E0E94A80F0E9456
:1018A000A10B909150048917A1F00E94A10B809385
:1018B00050040F900F900F900F900F90DF91CF91E9
:1018C0001F910F91FF90EF90DF90CF90BF900C94FD
:1018D000B80F0F900F900F900F900F90DF91CF9156
:1018E0001F910F91FF90EF90DF90CF90BF900895E0
:1018F0000C94DE0308950895CF93C62F0E94D80359
:1019000021E030E002C0220F331FCA95E2F790E0D9
:101910002823392381E0232B09F480E0CF91089517
:10192000089508950895CF93DF93882309F4E6C0BE
:101930009EE7980F933020F5C2E0D9E3823831F06A
:10194000C4E0D7E4833811F4C1E0D3E50E94A10BD1
:101950008C2309F0D3C08D2F0E94FC0E0E94E60E4E
:101960002FEF81EE94E0215080409040E1F700C0DD
:1019700000008D2F0E94190FDF91CF910C94E60E7D
:101980009CEF980F913A18F40E94FC0EF5CF90E26C
:10199000980F983050F4877091E001C0990F8A95A4
:1019A000EAF7892F0E94390FE7CF9BE5980F933014
:1019B00080F4853A41F0863A49F083E890E0DF917F
:1019C000CF910C94B80B81E890E0F9CF82E890E0D9
:1019D000F6CF98E5980F973108F090C0883A09F44F
:1019E00048C0893A09F448C08A3A09F448C08B3A99
:1019F00009F448C08C3A09F448C08D3A09F448C04B
:101A00008E3A09F448C08F3A09F448C0813B09F482
:101A100048C0803B09F448C0823B09F448C0833B7E
:101A200009F448C0843B09F448C0853B09F448C028
:101A3000863B09F448C0873B09F448C0883B09F459
:101A400048C0893B09F448C08A3B09F448C08B3B35
:101A500009F448C08C3B09F448C08D3B09F448C0E8
:101A60008E3B09F448C090E080E0DF91CF910C9468
:101A7000CE0B82EE90E0F9CF89EE90E0F6CF8AEEC1
:101A800090E0F3CF85EB90E0F0CF86EB90E0EDCFE8
:101A900083EB90E0EACF84EB90E0E7CF87EB90E038
:101AA000E4CF8CEC90E0E1CF8DEC90E0DECF83E8EA
:101AB00091E0DBCF8AE891E0D8CF82E991E0D5CF01
:101AC00084E991E0D2CF81E292E0CFCF83E292E04D
:101AD000CCCF84E292E0C9CF85E292E0C6CF86E225
:101AE00092E0C3CF87E292E0C0CF8AE292E0BDCF1E
:101AF0008FE690E0BACF80E790E0B7CFDF91CF914B
:101B00000895CF93DF93882309F44CC09EE7980F84
:101B1000933018F5C2E0D9E3823831F0C4E0D7E45D
:101B2000833811F4C1E0D3E50E94A10B8C23D1F1DD
:101B30008D2F0E94FC0E0E94E60E2FEF81EE94E0A6
:101B4000215080409040E1F700C000008D2F0E949E
:101B5000190FDF91CF910C94E60E9CEF980F913AFC
:101B6000B0F390E2980F983050F4877091E001C084
:101B7000990F8A95EAF7892F0E943F0FEACF9BE5DC
:101B8000980F933030F490E080E0DF91CF910C9487
:101B9000B80B885A873130F490E080E0DF91CF9124
:101BA0000C94CE0BDF91CF9108950E94580F0E94A4
:101BB0002B0F0C94E60E0E94470F0C94D50DFF924C
:101BC0000F931F93CF93DF9300D000D01F92CDB718
:101BD000DEB78C010E94BA0F81112DC085E0F8019B
:101BE000DE01119601900D928A95E1F7F80140818E
:101BF00051812381348181E02115310531F05F3F2E
:101C000019F481E04F3F09F080E080FD14C0F80135
:101C1000028149835A830B83722F3D832C83602F6B
:101C20008D810E94AD0EF82E892F82958F708230A3
:101C300068F08E30D9F10F900F900F900F900F90A9
:101C4000DF91CF911F910F91FF900895192F1F7071
:101C5000907F11F01295107F0023A1F0112329F03D
:101C6000812F0E944A0F0E94E60E8F2D0F900F9039
:101C70000F900F900F90DF91CF911F910F91FF90D8
:101C80000C94930C8F2D0E94810D1123A1F2812FB2
:101C90000E94500F0F900F900F900F900F90DF91B8
:101CA000CF911F910F91FF900C94E60EF110C3CFCE
:101CB000002309F4C0CF0E94DB0DFFEF20E782E094
:101CC000F15020408040E1F700C000000F900F90DD
:101CD0000F900F900F90DF91CF911F910F91FF9078
:101CE0000C946D10CF93DF93CDB7DEB72A970FB664
:101CF000F894DEBF0FBECDBF942F4E83252F5F8398
:101D0000688779878A8749855A8581E0452B31F034
:101D10002F3F19F481E09F3F09F080E080FD07C06C
:101D20004E815F81688579858A850E94A90F85E04B
:101D3000FE013696DE01119601900D928A95E1F72B
:101D4000CE0101960E94DF0D2A960FB6F894DEBFF1
:101D50000FBECDBFDF91CF910895CF93DF9300D019
:101D600000D01F92CDB7DEB7942F4983252F5A8319
:101D70007C838D834C815D8181E0452B31F02F3F49
:101D800019F481E09F3F09F080E080FD15C060916B
:101D900061047091620480916304909164040E94D4
:101DA0005B0F69817A810F900F900F900F900F90C9
:101DB000DF91CF910C949E1090E080E00F900F90F7
:101DC0000F900F900F90DF91CF910895E091150340
:101DD000F091160380916E048083E0911503F091D9
:101DE0001603808190916D04892B80838091150367
:101DF000909116030C94AD0B2091150330911603AE
:101E0000F90132969FEF40E05191851751F09F3FC5
:101E100019F4511101C0942F4F5F4630A9F79F3F2D
:101E200009F40895290F311D97FD3A95F901828330
:101E300008952091150330911603F9013296285F19
:101E40003F4F9191891303C0DF0111971C92E21754
:101E5000F307B9F7089581E090E0E0911503F09160
:101E60001603E80FF91F1082019688309105A9F733
:101E7000089590916E04892B80936E040895982F95
:101E8000909580916E04892380936E04089510923A
:101E90006E04089590916D04892B80936D040895CC
:101EA000982F909580916D04892380936D040895F7
:101EB00010926D040895CF92DF92EF92FF926C0121
:101EC000EE24FF2420E0C114D104E104F10419F050
:101ED000C701B60120E1C72ED82EE92EFF24C11478
:101EE000D104E104F10419F0285FC701B6016B01C8
:101EF0007C0154E0F694E794D794C7945A95D1F7AF
:101F0000C114D104E104F10419F02C5FC701B6013A
:101F10006B017C0142E0F694E794D794C7944A950C
:101F2000D1F7C114D104E104F10419F02E5FC70107
:101F3000B6019695879577956795672B682B692BE2
:101F400009F02F5F822FFF90EF90DF90CF900895E0
:101F50000895CF93DF9300D000D01F92CDB7DEB7A6
:101F60000F900F900F900F900F90DF91CF910895E9
:101F70000C94780C80E0089580917904843021F1EC
:101F80001092700488E190E020E40FB6F894A895D0
:101F9000809360000FBE2093600083B7817F8460D0
:101FA00083BF83B7816083BF7894889583B78E7F22
:101FB00083BF0FB6F894A8958091600088618093E4
:101FC0006000109260000FBE0895CF930E94910CA4
:101FD0000E9473030E94920CC0E08C2F0E94D803D1
:101FE000811105C0CF5FC031C1F7CF91089581E065
:101FF000FCCF0E947A0C0C94DB0D1F920F920FB64F
:102000000F9211248F939F93AF93BF93809170048D
:10201000811113C08091710490917204A091730496
:10202000B09174044196A11DB11D809371049093E9
:102030007204A0937304B0937404BF91AF919F9105
:102040008F910F900FBE0F901F90189582E084BD66
:1020500093E095BD9AEF97BD80936E0008952FB7DA
:10206000F8948091710490917204A0917304B091DE
:1020700074042FBF08952FB7F89460917104709184
:10208000720480917304909174042FBF0895789422
:102090001F920F920FB60F9211248F939F93AF93BD
:1020A000BF938091710490917204A0917304B091D8
:1020B00074040196A11DB11D809371049093720464
:1020C000A0937304B0937404BF91AF919F918F91CB
:1020D0000F900FBE0F901F9018950E94720AF894EF
:1020E00087E797E7909301088093000887E090EBDB
:1020F000DC018093820490938304A0938404B093C2
:10210000850488E19CE00FB6F894A8958093600060
:102110000FBE90936000FFCFE92FF0E093E0EE0F49
:10212000FF1F9A95E1F7E80FF11DEC58FE4F8491DF
:10213000982F92959F708F7097700895CF93C82FA6
:10214000CB010E948C10292F30E074E0220F331F46
:102150007A95E1F7282B2038310524F080E090E0D3
:10216000CF9108952C2F30E043E0220F331F4A9582
:10217000E1F79770290F311D54E0220F331F5A9554
:10218000E1F7E82FEF70E20FF32FF11DEE0FFF1FC5
:10219000EC58FF4F85919491E3CFEE0FFF1F059010
:0A21A000F491E02D0994F894FFCFAC
:1021AA00000100010540030000FF540459045704CC
:0821BA0058049E0401650400B5
:00000001FF
