:100000000C9476020C94C8060C948B060C94E202B5
:100010000C94E2020C94E2020C94E2020C94E202D0
:100020000C94E2020C94E2020C94E2020C94A215ED
:100030000C94E2020C94681A0C94E2020C94E20212
:100040000C94E2020C94E2020C94FE0E0C94BD1A85
:100050000C94E2020C94E2020C94E2020C94E20290
:100060000C94E2020C94E2020C94E2020C94E20280
:100070000C94E2028800EA44E944E24404000500EA
:1000800006000700080009000A000B000C000D0024
:100090000E000F00100011001200130014001500D4
:1000A00016001700180019001A001B001C001D0084
:1000B0001E001F0020002100220023002400250034
:1000C00026002700280029002A002B002C002D00E4
:1000D0002E002F0030003100320033003400350094
:1000E00036003700380039003A003B003C003D0044
:1000F0003E003F00400041004200430044004500F4
:1001000046004700480049004A004B004C004D00A3
:100110004E004F0050005100520053005400550053
:1001200056005700580059005A005B005C005D0003
:100130005E005F006000610062006300640065A112
:1001400085006700680069006A006B006C006D0044
:100150006E006F00700071007200730089008700EC
:100160008A008B00E000E100E200E300E400E5002B
:10017000E600E7000100010001000100EA4401007F
:100180000100E244010001000100010046000100FD
:100190004A004B0001000100470048000100010037
:1001A000E94401000100010001000100010001001B
:1001B0003A003B003C003D003E003F004000410053
:1001C00042004300010035004C00390001004400AA
:1001D0004500520049000100010050004F00290075
:1001E0004D004E005100010001000100010001001E
:1001F00001000100010001000100010001000100F7
:1002000001000100010001000100010001000100E6
:1002100001004D004A004E004B00010001000100AA
:1002200001000100010001000100010001000100C6
:1002300001000100010001000100010001000100B6
:1002400001000100010001000100010001000100A6
:10025000010001000100010001000100490001004E
:100260000100010001000100010001000100010086
:1002700001000100007B46010203763A687F657742
:10028000482B353B6978796439141E3C6A7A1D160F
:10029000041A1F3D6B061B070821203E6C2C190910
:1002A0001715223F6D11050B0A1C23406E7E100DA1
:1002B000182425416F360E0C122726427037380F4E
:1002C00033132D43717534322F2E44727C7D2830C8
:1002D0003174457351504A524D492A5466594F5C06
:1002E0005F4C4B4E62635A5D5E60295367585B56A4
:1002F000576147554842403E3C3A3B456843413F81
:100300003D2B357E697A790078141E7B6A7C1D1638
:10031000041A1F7F6B061B07082120656C2C190926
:100320001715224A6D11050B0A1C234C6E49100D3E
:10033000182425516F360E0C1227264F7037380FB0
:1003400033132D52717534502F2E4E72397D283053
:100350004D314B735464586776012A773259745C77
:100360005F66020362635A5D5E60295344575B56C1
:100370005561474680291E1F202122232425262738
:100380002D2E2A2B141A0815171C180C12132F3097
:100390002878041607090A0B0D0E0F33343579310E
:1003A0001D1B06190511103637387D557A2C393A40
:1003B0003B3C3D3E3F4041424353475F6061565C9A
:1003C0005D5E57595A5B62634648644445677B7F6C
:1003D000650301025250514F68696A6B6C6D6E6F14
:1003E0007071725800494C754A4D734B4E767C774C
:1003F0007E7466543403490042004D0020005000D2
:10040000430020006B006500790062006F0061000E
:1004100072006400200063006F006E0076006500CB
:1004200072007400650072000000080354004D0063
:100430004B0000000403090409023B00020100A074
:10044000320904000001030101000921110100012A
:100450002240000705810308000A09040100010386
:100460000000000921110100012222000705830379
:100470002000011201100100000008EDFEEE1B013A
:1004800002010200010631FF0974A101097515007E
:1004900026FF009520750881020976150026FF00C9
:1004A000952075089102C005010906A101050719EB
:1004B000E029E71500250195087501810295017570
:1004C0000881010508190129059505750191029515
:1004D00001750391010507190029FF150026FF008A
:1004E000950675088100C000FF06990E11241FBEF5
:1004F000CFEFD4E0DEBFCDBF04B603FE41C0809194
:100500009D0490919E04A0919F04B091A004873017
:10051000904BA740B04BA1F510929D0410929E0401
:1005200010929F041092A00414BE0FB6F894A895E0
:1005300080916000886180936000109260000FBE1F
:10054000109201081092000889E0E3E0F0E0809347
:100550005700E491E695E370E15080E090E1E330EC
:1005600040F4F0E0EE0FFF1FE95EFC4F80819181C7
:1005700000C0E0E0F0E8E81BF90BF695E795099577
:1005800013E0A0E0B3E0E4E1F6E302C005900D92D1
:10059000AE31B107D9F724E0AEE1B3E001C01D925E
:1005A000AD39B207E1F712E0C6E7D2E004C0219707
:1005B000FE010E94021BC437D107C9F70E942E1109
:1005C0000C94081B0C9400005E980895FC018AB1FD
:1005D000938D909598239AB99BB1838D892B8BB974
:1005E0000895FC018AB1938D909598239AB98BB1A7
:1005F000938D892B8BB985E08A95F1F7000099B12D
:10060000838D982381E009F480E00895FC018BB18B
:10061000948D909598239BB99AB1848D892B8AB932
:100620000895FC018AB1948D909598239AB99BB155
:10063000848D892B8BB90895FC018AB1948D909596
:1006400098239AB98BB1948D892B8BB985E08A95C3
:10065000F1F7000099B1848D982381E009F480E0DE
:1006600008950F931F93CF93DF938C01EB01C80183
:100670000E94F102882341F0209731F085E08A95AD
:10068000F1F700002197F3CFCE01DF91CF911F91B9
:100690000F9108950F931F93CF93DF938C01EB017C
:1006A000C8010E94F102811108C0209731F085E055
:1006B0008A95F1F700002197F3CFCE01DF91CF911A
:1006C0001F910F910895CF93DF93EC010E94E602F2
:1006D000CE01DF91CF910C941103FC018BB1938D6E
:1006E000909598239BB98AB1938D892B8AB9CF01B4
:1006F0000C941103CF93DF93EC010E94E402CE012E
:10070000DF91CF910C9463035E9A0C946D03FC010E
:10071000118210821282138280E090E89583848394
:10072000178210860895CF93DF93EC012E982698B8
:100730002F9827980E946D03569A5E9A1DBA85E0FD
:100740008093690010926A008FEF8CBB83E08DBBB1
:100750005E9ACE010E9487038AB18C6B8AB98BB1F5
:1007600083748BB90E94BE0E0F9209B01F921FB600
:100770001F920F93AF93BF93A0910203B091030315
:1007800010905703B0991394112051F000B50F70D9
:100790000D931D92112410925703B33009F4B1E068
:1007A000B09A00BC0FE0002200918400007F002A74
:1007B0000D92009085000D92A0930203B33009F4CE
:1007C000B1E0B0930303BF91AF910F911F901FBE93
:1007D0001F900F90DF91CF910895CF93DF93EC019D
:1007E0008F8190E001968F70992728852817190628
:1007F00041F4CE010E9487030E94E402CE010E94D0
:1008000063032FB7F89498858F81891761F0FE01F3
:10081000E90FF11D81859F5F9F70988790E02FBF42
:10082000DF91CF9108958FEF9FEFF9CF0F931F9333
:10083000CF938C01CAE1C15069F0C8010E94ED0359
:100840008F3F980749F48FE99FE00197F1F700C0C7
:100850000000F1CF8FEF9FEFCF911F910F9108957F
:100860004F925F926F927F928F929F92AF92BF92C0
:10087000CF92DF92EF92FF920F931F93CF93DF936C
:10088000EC011B828C819D818115904809F0F9C093
:100890005E9A2BE0D22ECC24C394062F10E0BB240A
:1008A000B39436E0432E47E0542E58E0A52E65E081
:1008B000962E74E0872EE3E07E2EF2E06F2ECE01BE
:1008C0000E946D038FE193E00197F1F700C00000F3
:1008D000CE010E9406038FE193E00197F1F700C07B
:1008E0000000CE010E94E60268E97AE3CE010E9490
:1008F0003103892B59F4BB828B81813009F0ACC064
:10090000DA94DD2009F4A8C01B82D9CFF12CE12CA8
:1009100090E59A95F1F7C8010E2C02C09595879540
:100920000A94E2F780FF0DC0CB24CE010E94110390
:1009300062E370E0CE010E944A03892B31F46B829E
:10094000DBCFCE010E940603F3CF62E370E0CE015D
:100950000E943103892B11F47B82CECF2FEFE21A54
:10096000F20A88E0E816F10499F690E59A95F1F715
:10097000CE01CC2059F00E94110362E370E0CE0159
:100980000E944A03892B29F48B82B6CF0E9406036A
:10099000F4CF62E370E0CE010E943103892B11F4A1
:1009A0009B82AACF20E52A95F1F7CE010E94110380
:1009B0009CE2E92EFF24F394CE010E941C038823BD
:1009C00059F0E114F10451F085E08A95F1F7000047
:1009D00091E0E91AF108F0CFEF2811F44B828CCFA7
:1009E0008CE2E82EFF24F394CE010E941C038111B7
:1009F0000BC0E114F10451F025E02A95F1F7000055
:100A000081E0E81AF108F0CFEF2811F45B8274CF8F
:100A10006CE271E0CE010E944A03892B11F4AB8293
:100A20006BCFCE010E948703CE010E9463030E9418
:100A3000E402CE01DF91CF911F910F91FF90EF90D3
:100A4000DF90CF90BF90AF909F908F907F906F90EE
:100A50005F904F900C9416048C819D8199838883BC
:100A60008B8180618B83CE010E946D038FE39FE1B8
:100A70000197F1F700C00000CE010E9463030E94BD
:100A8000E4028FEF9FEFDF91CF911F910F91FF90C5
:100A9000EF90DF90CF90BF90AF909F908F907F901E
:100AA0006F905F904F900895FC0190B5428D8091BA
:100AB0008C04248135812115304849F586832481B1
:100AC0003581369527953583248321E030E001C0B8
:100AD000220F4A95EAF7892F822329F08481958194
:100AE00090689583848384819581992780359105C9
:100AF000C1F160F580319105A1F108F5892B29F14B
:100B00001282848195819183808380E809C0268147
:100B1000821B8530A0F2848195819183808380E25D
:100B200083839BB1838D809589238BB98AB1938D03
:100B3000892B8AB980E090E89583848306C080324F
:100B4000910519F080349105D9F60895803A910500
:100B500009F44AC090F480389105B9F380399105C1
:100B600079F6848195819183808384819581803910
:100B70009A4A09F068C082E0D3CF803C910521F009
:100B8000803D910571F3BCCF8481958191838083F1
:100B900084819581892F99279583848382E282833A
:100BA000248135818781DF01A80FB11D19962C930F
:100BB0008F5F8F70878390E001968F7099272085D3
:100BC0002817190651F45E9A9BB1838D809589236D
:100BD0008BB98AB1938D892B8AB9978180859813B7
:100BE000A9CF80E48383A6CF8281811124C084E6CB
:100BF00099B1238D922369F4882359F095E09A9551
:100C0000F1F700008150F4CF25E02A95F1F70000BC
:100C1000815099B1238D922399F08111F5CF848170
:100C200095819183808384819581892F99279583EC
:100C3000848381E2B4CF8281813209F086CFEFCF05
:100C4000811183CFECCF848195812481358196FBFE
:100C5000882780F956E0369527955A95E1F782273F
:100C6000282F30E0982F9E7F21F0359527958170B1
:100C7000F6CF811102C081E053CF8481958197FF27
:100C80000CC080E182838481958126E096958795CA
:100C90002A95E1F79583848383CF81E1F3CF1F9376
:100CA000CF93DF93EC01162F6DEE0E9430048A3F44
:100CB000910539F4612FCE01DF91CF911F910C94F2
:100CC0003004DF91CF911F9108951F920F920FB6BC
:100CD0000F9211242F933F934F935F936F937F93C2
:100CE0008F939F93AF93BF93EF93FF938EE193E026
:100CF0000E945405FF91EF91BF91AF919F918F9109
:100D00007F916F915F914F913F912F910F900FBE07
:100D10000F901F9018950F9209B01F921FB61F9247
:100D20000F93AF93BF93A0910203B0910303109070
:100D30005703B0991394112051F000B50F700D9323
:100D40001D92112410925703B33009F4B1E0B09A08
:100D500000BC0FE0002200918400007F002A0D9269
:100D6000009085000D92A0930203B33009F4B1E026
:100D7000B0930303BF91AF910F911F901FBE1F90BF
:100D80000F90499904C04E9902C09FCF01C0189599
:100D90000F9209B01F921FB61F920F93AF93BF938C
:100DA000A0910203B091030310905703B0991394DC
:100DB000112051F000B50F700D931D921124109267
:100DC0005703B33009F4B1E0B09A00BC0FE0002241
:100DD00000918400007F002A0D92009085000D9202
:100DE000A0930203B33009F4B1E0B0930303BF91C1
:100DF000AF910F911F901FBE1F900F901895EEE1BD
:100E0000F3E0118210821282138280E090E89583D1
:100E10008483168281E0818F128E92E0938F848F7B
:100E20000895262F30E054E0359527955A95E1F73F
:100E30002770E62FEF70823091F08330E9F0813037
:100E400041F5822F90E044E0880F991F4A95E1F721
:100E5000E80FF92FF11DEC58FC4F84910895822F73
:100E600090E034E0880F991F3A95E1F7E80FF92FE9
:100E7000F11DEC50FD4FF1CF822F90E024E0880F60
:100E8000991F2A95E1F7E80FF92FF11DEC58FD4F56
:100E9000E4CF80E80895E7E4F3E011821082138242
:100EA000128215821482178216821186108613868A
:100EB0001286158614861786168608951F93CF937B
:100EC000DF93FC0184810E94110787FD20C0182F49
:100ED0001F70C82FD0E094E0D595C7959A95E1F79B
:100EE000612F8C2F0E945D17811111C0CC0FDD1F67
:100EF000C95BDC4F21E030E002C0220F331F1A959E
:100F0000E2F788819981822B932B99838883DF91E3
:100F1000CF911F9108951F93CF93DF93FC0184819C
:100F20000E94110787FD22C0182F1F70C82FD0E024
:100F300094E0D595C7959A95E1F7612F8C2F0E9483
:100F40005D17882399F0CC0FDD1FC95BDC4F81E072
:100F500090E002C0880F991F1A95E2F7809590954E
:100F6000288139818223932399838883DF91CF91CC
:100F70001F910895CF93DF93CBE3D3E01B821A82B6
:100F80001C821D820E944B0788819981DF91CF913D
:100F90000C94930380918B04816080938B040C9458
:100FA0004B07E82FF0E0EE0FFF1FE95BFC4F80815D
:100FB000918108950C944B07E72FE77090E023E0B0
:100FC000880F991F2A95E1F78E0F911D34E0880F45
:100FD000991F3A95E1F7E62FEF70E80FF92FF11D11
:100FE000EE0FFF1FEC58FF4F859194910895FC017F
:100FF0008481823070F0843061F062FB992790F92F
:1010000060FD926061FD9460692F808191810C94F4
:101010004F060895682F8BE393E00C94F707CF9267
:10102000DF92EF92FF920F931F93CF93DF937C0198
:101030006B010E94961A8C010E94EF0EF7018081CD
:1010400091810E94ED03EC01019649F4C8010E94D0
:10105000AE1A8C159D0518F40E94C60EEFCFCE0176
:10106000DF91CF911F910F91FF90EF90DF90CF9084
:1010700008950F931F93CF93DF93FC01808191819B
:10108000DC0112962C91213109F18F0162EF0E944F
:1010900030048F3F9807E9F08A3F9105E9F464EF47
:1010A00071E0C8010E940F088F3F9807C1F0D82F48
:1010B000CC2764EF71E0C8010E940F08DE01A82B65
:1010C000CD01DF91CF911F910F9108958DEF9FEF8B
:1010D000F8CF8FEF9FEFF5CF8EEF9FEFF2CF90E03D
:1010E00080E0EFCF862FE4EEE60FE83408F07EC014
:1010F000F0E0E358F74F0C94021BDB08E908F60810
:10110000F608CD08F608F608F608F608F608F60818
:10111000F608F608F608F608F608F608F608CF0806
:10112000F608D108F608F608F608F608ED08F608FD
:10113000F508EB08F608F608F608F608F608F608CB
:10114000F608F608F608F608F608F608F608C508E0
:10115000E108D308E508F608D508F608D908F60826
:10116000E308D708E708DD08DF08F608F608F60800
:10117000F608F608F608F608C708C908CB08EF080D
:10118000F108F608F608F608F30885E508958AE5FB
:1011900008958BE508958CE508958DE508958EE515
:1011A00008958FE5089580E6089581E6089582E622
:1011B000089583E608958FE6089581E7089582E70C
:1011C000089584E7089585E7089587E7089588E7F7
:1011D00008958AE708958CE708958FE7089580E7DA
:1011E000089589E708958BE7089584E50895CF93DE
:1011F000DF93FC019185923009F447C0EF019330F1
:1012000030F4992369F0913011F1118615C09330B3
:1012100009F445C09430C9F7653CB9F765E531C0BC
:10122000603E41F0613E61F067FD0CC0CF010E945D
:101230005E0702C081E0898780E0DF91CF91089549
:1012400082E0F9CF6F77CF010E948B07F5CF66332D
:10125000E1F268F46A32C9F267FD0EC0CE010E9465
:101260007208682FCE010E945E071986E5CF6A3AA0
:1012700061F2663B89F7C9CF6F77CE010E94720891
:10128000682FCE010E948B07F0CF6D3129F06D39A8
:1012900009F0BBCF84E001C083E08187CDCF653406
:1012A00009F0B3CF65E5DECF862FEDEFE60FE1382D
:1012B00008F0C6C0F0E0E15AF64F0C94021B0E0A8B
:1012C0000A0A200A200A200A200A200A200A100AF4
:1012D0000C0AE009200A200A0A0A220A200A200A27
:1012E000E0090E0A200A200A0C0A200A200A200A15
:1012F000200A200A200AE2090E0A040A200A080A23
:10130000200A200A200AE409100A200A200A180AE2
:10131000200A200A200AE609120A200A060A200AE0
:101320000A0A200A200A1C0A140A200A160A0C0AB1
:10133000200A200A200A1A0A230A200A200A200A60
:10134000200A200A200A200A230A200AE809200A83
:10135000200A100A200A200A120A200A200A200A5B
:10136000200A200A200A200A200A200AEA09200A64
:10137000200A200A180A200A200A200A200A200A25
:10138000200A200A200A200A200AEC09200AEE0975
:10139000F009200A200A200AF209F409F609200AB5
:1013A000F809FA09200A200A200A1E0AFC09200A64
:1013B000000AFE09020A200A200A200A200A120A4C
:1013C00089E1089587E108958FE1089587E20895FE
:1013D00080E6089582E608958CE5089583E50895F2
:1013E0008FE2089589E3089587E308958FE30895D0
:1013F00087E408958FE4089586E508958EE50895BD
:101400008FE7089580E0089585E608958EE60895B3
:101410008FE6089588E0089580E1089588E10895B1
:1014200080E2089588E2089580E3089588E30895AE
:1014300080E5089587E508958FE508958DE6089580
:101440008F7708958FE00895862F623309F447C09F
:10145000F0F4643209F44BC070F46C3109F44DC0FF
:1014600020F46B3109F44DC008956D31F1F1633210
:1014700009F449C008956B3209F447C018F46A3280
:1014800061F108956C3209F16D32C9F10895623449
:10149000D1F040F4643399F0A0F06A3311F16C3369
:1014A000B1F008956B34B9F028F4633491F06434EA
:1014B00001F108956D34F9F06136A9F0089580E1E5
:1014C000089588E1089580E2089588E2089580E310
:1014D000089588E3089580E4089588E4089580E5F8
:1014E000089587E508958AE608958FE5089587E1D0
:1014F000089585E608958EE608958FE6089581E5BE
:1015000008958FE1089587E2089588E00895862F71
:101510006B35D9F058F4613101F118F46E3089F06F
:101520000895633161F0643571F00895623689F091
:1015300018F46E3560F008956C3769F0089581E114
:10154000089584E508958BE508958DE508958AE66C
:1015500008958EE0089587E708958FE00895862F17
:10156000613121F0613419F48CE7089583E1089525
:10157000CF93DF93EC01EA85EB3008F03BC0F0E05D
:10158000EC53F54F0C94021BCF0A1F0B050B3B0BC2
:10159000530B5C0B610B660B6B0B700B780B8A812A
:1015A0009B8180599B4A029720F4CE010E94870AB2
:1015B000682F643811F158F46038B1F06338B1F035
:1015C0001A8667FD1CC0CE010E945E0714C0613EF2
:1015D00049F0603F29F082E0603E91F78A870BC0B6
:1015E00081E0FCCF84E0FACF89E0F8CF62E0CE0161
:1015F0000E945E071A8680E005C06FE7F8CF0E9460
:101600004B078FEFDF91CF9108958A819B8180599D
:101610009B4A029720F4CE010E94AF0A682F6935D9
:1016200049F3603F51F0623129F31A8667FDE7CF35
:10163000CE010E945409682FC6CF83E0CFCF8A81A4
:101640009B8180599B4A029720F4CE010E94870A11
:10165000682F633849F0643861F01A8667FDCFCF90
:10166000CE010E948B07C7CF62E0CE010E948B079C
:10167000C1CF6FE7FACF8A819B8180599B4A02973D
:1016800020F4CE010E94AF0A682F623109F4B2CF74
:10169000693509F4AFCF1A8667FDB1CFCE010E943C
:1016A0005409682FDDCF643129F0603F09F0A2CFE3
:1016B00086E094CF85E092CF673709F09BCF60E05A
:1016C00096CF87E0643109F489CF94CF88E0603FFA
:1016D00009F484CF8FCF673709F08CCF60E0C5CF96
:1016E000603F11F48AE07ACF1A860E94240AA3CFC1
:1016F0001A860E94240AD5CF862F6C3549F018F43B
:10170000633161F00895663729F06E3729F0089546
:1017100081E508958EE7089586E708958DE508959B
:10172000862F663809F467C030F5673609F44DC076
:1017300088F46C3509F469C038F4683009F469C07C
:10174000673509F460C00895643609F442C065360F
:10175000D1F10895673709F454C028F46D36B9F112
:101760006E3679F108956438B1F108F042C06C37F3
:1017700009F44DC008956C38D1F168F4693889F1E5
:1017800028F4673851F1683851F108956A3859F1F1
:101790006B3859F108956F3881F028F46D3849F0AD
:1017A0006E3849F00895613941F148F0623939F1F4
:1017B000089587E7089587E608958FE708958BE7F2
:1017C000089585E608958DE6089582E6089584E6F5
:1017D00008958EE608958CE7089582E008958EE7D7
:1017E00008958CE0089583E0089584E0089585E0ED
:1017F000089588E0089580E1089581E0089589E0E2
:10180000089588E508958CE5089583E5089588E6B0
:10181000089586E70895CF93DF93EC016F3B29F09D
:1018200048F486E5860F823038F41B868FEFDF910F
:10183000CF9108956C3FC9F38B85813009F44BC07B
:1018400040F0823009F483C0833009F49DC080E009
:10185000EECF8A819B8182392BEA920781F4CE01F7
:101860000E947C0B682F663871F1B0F4633821F167
:1018700068F482E06038F1F067FF1FC0E8CF81397B
:101880009B4A89F7CE010E94900BECCF6438C9F0D7
:10189000653891F768E611C06C38C9F030F46738E4
:1018A000A1F06B3849F761E008C06D3891F081E034
:1018B000603F11F78B87CBCF62E0CE010E945E07BD
:1018C000C6CF6FE7FACF68E7F8CF60E0F6CF69E000
:1018D000F4CF6AE0F2CF1B868A819B8182392BEAA2
:1018E0009207C1F4CE010E947C0B682FEDE7E60F52
:1018F000EB3050F5F0E0E158F34F0C94021B910CE3
:10190000960C980C9A0C9C0CA40CA40CA40C9E0C89
:10191000A00CA20C81399B4A49F7CE010E94900B82
:10192000E4CF62E0CE010E948B0791CF6FE7FACF40
:1019300068E6F8CF68E7F6CF60E0F4CF61E0F2CF79
:1019400069E0F0CF6AE0EECF67FD81CFEBCF653283
:10195000A9F038F46631A1F06E31A1F00E944B0776
:101960000BC0663229F083E0603F09F4A3CFF6CFC5
:101970006DE5CE010E945E071B8669CF63E5F9CF56
:1019800061E5F7CF60E0F5CF6E3181F020F466318C
:1019900029F761E505C0653239F06632F9F66DE583
:1019A000CE010E948B07E8CF63E5FACF60E0F8CF65
:1019B000CF93DF93EC01E881F9818381882391F053
:1019C0008381807551F488858B3011F48CE0888791
:1019D0008381823011F48DE088871382E881F98158
:1019E00011821082E881F98182818823B9F0928185
:1019F0008D81981799F085FF03C0928194FD05C0F1
:101A000084FF08C0828185FF05C088858B3011F472
:101A10008CE0888782818D8311821082E885EE3088
:101A200008F045C1F0E0E95EF24F0C94021B250D71
:101A3000300D400D4C0D5A0D640D750D820D980D35
:101A4000AA0D390E400E830E7A0E0E94961A9F83BD
:101A50008E83888199810E947A0381E0888727C1DB
:101A6000888199810E94ED030196D1F78E819F8133
:101A70000E94AE1A893B9B4008F419C182E0EECF68
:101A80006FEF888199810E9430048A3F910511F49B
:101A900086E0E4CF83E0E2CF888199810E948403CD
:101AA0002E98269A2F98279A0E94961A9F838E83A3
:101AB00084E0D4CF8E819F810E94AE1A853F9140F1
:101AC00008F4F5C085E0CACF2E9826982F9827985D
:101AD000888199810E948703888199810E947A0375
:101AE0000E94961A9F838E83D3CF888199810E940A
:101AF000ED03019609F4DBC00E94961A9F838E8342
:101B000087E0ACCF8E819F810E94AE1A853F9140C5
:101B100010F089E08887888199810E94ED03019601
:101B200009F4C5C00E94961A9F838E8388E096CFE1
:101B30008E819F810E94AE1A853F914010F089E00E
:101B40008887888199810E94ED03019609F4AFC0CE
:101B500089E084CFCE010E9439089B838A83009755
:101B600021F482E08C838AE079CF8F3F980711F4CB
:101B700081E0F8CF9C012D5F3F4F2230310588F383
:101B80008F3F910511F484E0EDCF9C0125583B4A2D
:101B90002230310520F082392BEA920791F460EF70
:101BA000888199810E9430048A3F9105D1F663E0D3
:101BB000888199810E9430048A3F910591F683E0E3
:101BC000D1CF9C0120593B4A2230310560F582E09B
:101BD0008C8360EF888199810E9430048A3F91054F
:101BE000C9F08A819B8181399B4A09F0BCCF60EFA3
:101BF000888199810E9430048A3F910509F0B3CF12
:101C000063E0888199810E9430048A3F910509F040
:101C1000AACFD5CF62E8888199810E9430048A3F9B
:101C20009105F9F6A0CF803B2FEB920741F2882770
:101C300081152BEA920709F494CF81152FEB9207B7
:101C400009F4BDCF81159F4709F4B9CF60EF8881B2
:101C500099810E9430048A3F910509F0A0CF62E08B
:101C6000888199810E9430048A3F910509F097CFBD
:101C700078CF8C81823021F18330E9F08BE0888746
:101C8000888199810E94ED03682F282F392F2F3FDB
:101C9000320769F08C81843051F02115310519F03B
:101CA0002F3F310591F40E944B070E94601881E09C
:101CB000DF91CF91089568EF888199810E94300467
:101CC0000E946E160E940A08D9CF823059F08330E4
:101CD00069F0813061F7CE010E94F7088F3F39F734
:101CE0008CE0BCCECE010E94B80AF8CFCE010E9493
:101CF0000B0CF4CF6EEF888199810E9430048A3AF0
:101D0000910509F425CF1B821A821C821D820E9434
:101D10004B07888199810E9493030E944B070E9480
:101D200060181886C4CF0E94C60E8BE393E00C9413
:101D3000D80CEBE3F3E08EE193E091838083138290
:101D400012821482158210861186128613860C94D4
:101D50004B07CF93C82F982F92959F7087E39A30A7
:101D600008F480E3890F0E942110CF7087E3CA3006
:101D700008F480E38C0FCF910C9421101092800016
:101D800081E08093810080936F000895E0910003CB
:101D9000F091010380910203909103038E179F0736
:101DA000D1F081810E94A90EE0910003F09101031E
:101DB00080810E94A90E80E20E9421108091000380
:101DC000909101030296811523E0920729F09093E8
:101DD000010380930003089580E091E0F8CF209103
:101DE00002033091030380910003909101032817AF
:101DF000390709F408950E94C60EF1CF0F920FB66D
:101E00000F9200905703039400925703B1F4AF93DD
:101E1000BF93A0910203B09103030F9300B50F701D
:101E20000D9300E00D93A0930203B33009F4B1E0E9
:101E3000B09303030F91BF91AF910F900FBE0F901E
:101E4000189580916404089508950895CF93DF93C1
:101E500020919404243011F521E02093E90021E839
:101E6000215021F03091E80035FF1BC02091E8009F
:101E700025FF14C0EC0150E040E068E070E00E94F3
:101E8000DA128091E8008E778093E80088E0FE0106
:101E9000ACE5B4E001900D928A95E1F7DF91CF9126
:101EA0000895EFE3F1E03197F1F700C00000D8CFDB
:101EB000CF93C0915A03C1110BC00E94A21A643C77
:101EC00079408105910520F081E080935A03C1E0BB
:101ED0008C2FCF9108950895089542E061EC81E040
:101EE0000E94581246E261EC83E00C9458128091F3
:101EF0009604833009F452C030F4813059F18230B5
:101F000009F48EC008958A3009F47AC08B3009F440
:101F100060C0893009F041C0809195048132E9F5B3
:101F20008091990490919A04892BB9F58091E800E9
:101F3000877F8093E8008091E80082FF2AC080912B
:101F4000F100809364048091E8008B778093E8002F
:101F50000C948C1280919504813AF9F48091E800F8
:101F6000877F8093E8008091990490919A04892B4F
:101F700061F468E08CE594E070E00E942B1380919E
:101F8000E8008B778093E800089560E090E080E0BF
:101F9000F3CF809194048111CECF08958091950460
:101FA000813AD9F78091990490919A04892BA9F7E5
:101FB0008091E800877F8093E8008091E80080FFAF
:101FC000FCCF809114038093F1008091E8008E771C
:101FD000BDCF80919504813201F780919904909151
:101FE0009A04892BD1F68091E800877F8093E800DE
:101FF0000E948C1280919704809314030C946018B3
:1020000080919504813249F68091E800877F809322
:10201000E8000E948C1280919804809365040895D2
:1020200080919504813A09F0B8CF8091E800877FCC
:102030008093E8008091E80080FFFCCF80916504E8
:10204000C2CFFF920F931F93CF93DF93D82F0FB67A
:1020500007FE46C080919404843079F08091070394
:1020600090E001962091090330E082239323209190
:1020700008032817190609F0CBC00E94580F8111D8
:102080000FC08091070390E001962091090330E092
:1020900082239323209108032817190609F0B8C05A
:1020A0000E94961A8C01C091E900CF708091EC00DB
:1020B00080FD37C080E0C82B83E08093E90085E095
:1020C000F82E8091EB0085FD08C08091EB0080FF29
:1020D00004C08091EE0087FD44C0CF70C093E9003A
:1020E000E09107038E2F90E001962091090330E0E4
:1020F00082239323209108032817190609F481C02D
:102100008091050390910603E80FF92FF11DD0830C
:10211000809107038F5F90910903892380930703C0
:1021200070C080E8C8CFE0910503F0910603E80F86
:10213000F11D90818F5F2091090382238093080312
:102140009093F1008091E80085FD0BC08091E8003C
:1021500080FF07C08091E8008E778093E800F092BE
:1021600004038091080390910703981759F1909107
:10217000E80095FDD8CF80E02CC01092F10031C06E
:102180008091070390E001962091090330E08223BB
:102190009323209108032817190609F09ECF8091F8
:1021A0000403882309F499CF0E94961A9C01801792
:1021B000910709F486CF9091040391509093040302
:1021C00089017FCF8091E80085FFD5CFD093F100C2
:1021D00081E09091F200992379F09091E80090FFCE
:1021E0000BC09091E80095FDC8CF9091E8009E77D4
:1021F0009093E800F0920403882311F2CF70C0930B
:10220000E90080E0DF91CF911F910F91FF90089539
:10221000E091070375CF08958091640480935B0378
:10222000109264040E94DA070C9460180C940C114C
:102230000E94421A80919204882329F00E944F1A2A
:1022400081110C94421208950E94641A80915B03DC
:102250008093640408950C9424110895CF9384B757
:10226000877F84BF0FB6F894A8958091600088613D
:1022700080936000109260000FBE80E890E00FB67F
:10228000F89480936100909361000FBE8AE093E020
:102290000E9469160E94BA070E94B1160E943F155B
:1022A0000E94921578940E94B31680919404843011
:1022B00009F044C00E94580F882309F43FC00E94CF
:1022C0000B11C3E0809194048530E9F10E942D1A2E
:1022D0000E94B7162091E4003091E50080915803E8
:1022E000909159032817390731F18091E4009091BA
:1022F000E50090935903809358030E94580F882358
:10230000D1F0809194048430B1F49091E9009F70F1
:102310008091EC0080FD1AC080E0892BC093E90019
:102320009091EB0090FF04C09091EE0097FD2CC0BF
:102330008F708093E9000E944D16C4CF0E944D1605
:102340000E942D11B2CF0E941811BCCF80E8E5CFBA
:10235000E0910503F0910603E90FF11D20819F5FD5
:10236000309109039323909308032093F1009091F7
:10237000E80095FD09C09091E80090FF05C090919C
:10238000E8009E779093E80090910803209107035E
:10239000291721F02091E80025FDDACF9091F20075
:1023A000992331F29091E80090FFC2CF9091E8001C
:1023B00095FD06C09091E8009E779093E800B8CF15
:1023C0001092F100F3CFE92FFF27E330F10551F12F
:1023D00050F4E130F105C1F03297F9F0F0E0E0E0BF
:1023E00090E080E015C0E132F10509F437C0E23237
:1023F000F105A1F76115710509F43FC085E894E086
:102400006130710529F0EACFE2E1F0E083E794E082
:10241000DA018D939C93CF010895EBE3F0E088E31C
:1024200094E0F6CF99278130910589F048F0029722
:10243000A9F6E4EFF3E0E491F0E084EF93E0E8CF75
:10244000E4E3F4E0E491F0E084E394E0E1CFEAE255
:10245000F4E0E491F0E08AE294E0DACFE9E0F0E041
:102460008AE494E06115710599F2E9E0F0E083E611
:1024700094E06130710561F2B1CFE0E4F0E087EA09
:1024800094E0C6CF84E089BD86E089BD09B400FE32
:10249000FDCF8091D8008F7D8093D8008091E0009F
:1024A00082608093E0008091E00081FDFCCF089580
:1024B000982F953028F08F708093E90081E008957F
:1024C0009093E900242F762F50E0981731F0709107
:1024D000EC002091ED005091F00021FD02C09F5FC3
:1024E000E8CF3091EB003E7F3093EB003091ED0070
:1024F0003D7F3093ED003091EB0031603093EB0085
:102500007093EC002093ED005093F0002091EE00CA
:1025100027FDE5CF80E008958091950487FF13C0E3
:102520008091E80082FF06C08091E8008B7780935D
:10253000E80004C0809194048111F2CF0895809145
:1025400094048823D9F38091E80080FFF8CF80912C
:10255000E8008E77ECCF2091E4003091E50085E62D
:102560009091EC0090FF06C09091E80090FF06C0AB
:1025700080E008959091E80092FDFACF9091940444
:10258000992391F0953091F09091EB0095FD10C05A
:102590004091E4005091E5002417350709F381507C
:1025A0009A01F1F684E0089582E0089583E00895A9
:1025B00081E00895AF92BF92CF92DF92FF920F9386
:1025C0001F93CF93DF936C01EB018A010E94AB1242
:1025D000F82E811125C00115110539F0F80180810F
:1025E0009181C81BD90BC80ED91EB12CA12C2097E4
:1025F000B9F08091E80085FD24C08091E8008E77D5
:102600008093E8000E944D1601151105A1F0F80114
:1026100080819181A80EB91EB182A08285E0F82E3A
:102620008F2DDF91CF911F910F91FF90DF90CF9071
:10263000BF90AF9008950E94AB128823C1F2F82E8C
:10264000EFCFF60181916F018093F1002197FFEFA9
:10265000AF1ABF0ACCCFFC0180919B0490919C04DF
:1026600086179707A0F06115710529F49091E8008D
:102670009E779093E80090E06115710551F49111F7
:1026800008C08091E80082FF32C080E00895BC015C
:10269000F2CF809194048823B1F18530B1F180911B
:1026A000E80083FD2EC08091E80082FDEACF809192
:1026B000E80080FFE1CF2091F20030E06115710564
:1026C00019F02830310558F091E02830310509F033
:1026D00090E02091E8002E772093E800CDCF819103
:1026E0008093F100615071092F5F3F4FE7CF8091D8
:1026F0009404882341F0853041F08091E80083FF05
:10270000C0CF81E0089582E0089583E00895FC0140
:1027100080919B0490919C0486179707A0F0611507
:10272000710529F48091E8008E778093E80090E0AD
:102730006115710551F4911108C08091E80082FF84
:1027400033C080E00895BC01F2CF809194048823C7
:10275000B9F18530B9F18091E80083FD2FC08091F7
:10276000E80082FDEACF8091E80080FFE1CF209170
:10277000F20030E06115710519F02830310558F08C
:1027800091E02830310509F090E08091E8008E77E3
:102790008093E800CDCF84918093F1003196615011
:1027A00071092F5F3F4FE6CF80919404882341F059
:1027B000853041F08091E80083FFBFCF81E008952C
:1027C00082E0089583E008951F93CF93DF93CDB700
:1027D000DEB7AA970FB6F894DEBF0FBECDBFE5E90E
:1027E000F4E08091F100819324E0ED39F207C9F71C
:1027F0000E94770F8091E80083FF44C08091950488
:10280000909196049A3008F03DC0E92FF0E0E55F22
:10281000FB4E0C94021B15143B1442143B1442143F
:102820009914BB14421412151F15803889F0823890
:1028300049F5809199048F70853020F58093E900E7
:102840008091EB0085FB882780F91092E90006C093
:102850008091910490919204911182609091E8008E
:10286000977F9093E8008093F1001092F10080919F
:10287000E8008E772DC0282F2D7F21F48823D1F0FA
:10288000823059F18091E80083FF0AC08091E8000E
:10289000877F8093E8008091EB0080628093EB005B
:1028A000AA960FB6F894DEBF0FBECDBFDF91CF91D1
:1028B0001F91089580919704813021F7933009F09A
:1028C00080E0809392041092E9008091E800877F75
:1028D0008093E8000E948C12D5CF809197048111DB
:1028E000F2CF809199048F702FEF280F243050F68B
:1028F0008093E9002091EB0020FFE5CF933031F485
:102900008091EB0080628093EB00DDCF9091EB0033
:1029100090619093EB0021E030E001C0220F8A9596
:10292000EAF72093EA001092EA008091EB008860B9
:10293000EACF8111A7CF109197041F778091E30010
:102940008078812B8093E3008091E800877F8093DB
:10295000E8000E948C128091E80080FFFCCF8091FB
:10296000E30080688093E30083E0111101C082E0FE
:102970008093940487CF8058823008F083CF809171
:102980009704909198048C3D23E09207A1F583E091
:102990008A838AE289834FB7F894DE01139620E098
:1029A0003EE051E2E32FF0E050935700E49120FF26
:1029B00003C0E295EF703F5FEF708E2F90E0EA303A
:1029C000C0F0C7968D939D932F5F243159F74FBF69
:1029D0008091E800877F8093E8006AE270E0CE0192
:1029E00001960E942B138091E8008B778093E8007A
:1029F00049CFC096E7CF6091990470919A04AE01D7
:102A00004F5F5F4F0E94E311BC01892B09F43ACF5D
:102A10009091E800977F9093E80089819A810E94C5
:102A20008713E1CF803809F02DCF8091E800877FB0
:102A30008093E800809190048093F10018CF811179
:102A400021CF90919704923008F01CCF8091E8003C
:102A5000877F8093E800909390040E948C1280916D
:102A60009004882331F084E0809394040E946D0FD9
:102A700009CF8091E30087FDF6CF81E0F5CF0E947A
:102A80009C150E949F15E0EEF0E0808181608083BC
:102A9000E8EDF0E080818F77808319BCE3E6F0E019
:102AA0008081816080831092930408950E949C1518
:102AB0000E949F158091D8008F778093D8008091D5
:102AC000D80080688093D8008091D8008F7D809353
:102AD000D80084E089BD86E089BD09B400FEFDCF41
:102AE0001092940410929004109292041092910407
:102AF00042E060E080E00E9458128091E1008E7F09
:102B00008093E1008091E20081608093E2008091F7
:102B1000E20088608093E2008091E0008E7F8093E5
:102B2000E0000895E3E6F0E080818E7F808381E01D
:102B3000809393040C9456151092E200089510921D
:102B4000E10008951F920F920FB60F9211242F9358
:102B50003F934F935F936F937F938F939F93AF9325
:102B6000BF93EF93FF938091E10082FF0BC08091B0
:102B7000E20082FF07C08091E1008B7F8093E1003B
:102B80000E944C168091E10080FF19C08091E20004
:102B900080FF15C08091E2008E7F8093E2008091DB
:102BA000E20080618093E2008091D800806280938F
:102BB000D80019BC85E0809394040E94161180917E
:102BC000E10084FF28C08091E20084FF24C084E0FB
:102BD00089BD86E089BD09B400FEFDCF8091D80093
:102BE0008F7D8093D8008091E1008F7E8093E100FB
:102BF0008091E2008F7E8093E2008091E20081600C
:102C00008093E200809190048823F1F184E0809326
:102C100094040E942B118091E10083FF24C08091D5
:102C2000E20083FF20C08091E100877F8093E10074
:102C300082E080939404109290048091E1008E7F52
:102C40008093E1008091E2008E7F8093E20080918A
:102C5000E20080618093E20042E060E080E00E9458
:102C600058120E946C0FFF91EF91BF91AF919F910D
:102C70008F917F916F915F914F913F912F910F9025
:102C80000FBE0F901F9018958091E30087FD02C042
:102C900081E0BDCF83E0BBCF0895CF9380919404B2
:102CA000882399F0C091E900CF708091EC0080FDFD
:102CB0000EC080E0C82B1092E9008091E80083FDEF
:102CC0000E94E413CF70C093E900CF91089580E88B
:102CD000F1CF90936B0480936A040895E0916A04A5
:102CE000F0916B04309721F00190F081E02D099470
:102CF00080E00895E0916A04F0916B04309721F030
:102D00000280F381E02D09940895209168043091A8
:102D100069042817390771F0909369048093680457
:102D2000E0916A04F0916B04309721F00680F781FE
:102D3000E02D0994089520916604309167042817C6
:102D4000390771F09093670480936604E0916A04F8
:102D5000F0916B04309721F00084F185E02D099407
:102D600008950C945C170E948D1A0C94CA078F92D8
:102D70009F92AF92BF92CF92DF92EF92FF920F930A
:102D80001F93CF93DF9300D000D01F92CDB7DEB753
:102D90000E94930E2DE6E22E24E0F22E10E0812F09
:102DA0000E94D1074C01F701A080B180A816B90696
:102DB000C9F180918B0481FD0E94701700E0CC2442
:102DC000C394D12CA824B924C5018C219D21892B21
:102DD00021F109831A8321E0C4018C219D21892BD3
:102DE00009F420E02B830E94961A8160782F9D833E
:102DF0008C8349815A816B818D810E94F7184981AA
:102E00005A816B817C818D810E942F1AF70180810C
:102E100091818C259D25918380830F5FCC0CDD1CD7
:102E2000003191F61F5FF2E0EF0EF11C183009F04F
:102E3000B6CF8FEF89838A831B820E94961A8160A6
:102E4000782F9D838C8349815A816B818D810E946B
:102E5000F7180E942E1A0E946E1690916C04891722
:102E6000B9F00E946E1680936C040F900F900F9033
:102E70000F900F90DF91CF911F910F91FF90EF90E6
:102E8000DF90CF90BF90AF909F908F900C943E1AA0
:102E90000F900F900F900F900F90DF91CF911F9197
:102EA0000F91FF90EF90DF90CF90BF90AF909F90E9
:102EB0008F9008950C940A080895CF93C62F0E940E
:102EC000D10721E030E002C0220F331FCA95E2F79C
:102ED0002823392381E0232B09F480E0CF91089542
:102EE000089508950895882309F4BBC09CEF980FB6
:102EF000913A20F40E9481190C946B1990E2980F7A
:102F0000983050F4877091E001C0990F8A95EAF7E4
:102F1000892F0E94BE19F0CF9BE5980F933070F473
:102F2000853A31F0863A39F083E890E00C948516C2
:102F300081E890E0FBCF82E890E0F8CF98E5980F29
:102F4000973108F08EC0883A09F446C0893A09F4EE
:102F500046C08A3A09F446C08B3A09F446C08C3A16
:102F600009F446C08D3A09F446C08E3A09F446C0C9
:102F70008F3A09F446C0813B09F446C0803B09F40E
:102F800046C0823B09F446C0833B09F446C0843BFB
:102F900009F446C0853B09F446C0863B09F446C0A7
:102FA000873B09F446C0883B09F446C0893B09F4D5
:102FB00046C08A3B09F446C08B3B09F446C08C3BB3
:102FC00009F446C08D3B09F446C08E3B09F446C067
:102FD00090E080E00C949B1682EE90E0FBCF89EEAF
:102FE00090E0F8CF8AEE90E0F5CF85EB90E0F2CF5D
:102FF00086EB90E0EFCF83EB90E0ECCF84EB90E0BA
:10300000E9CF87EB90E0E6CF8CEC90E0E3CF8DEC5E
:1030100090E0E0CF83E891E0DDCF8AE891E0DACF7D
:1030200082E991E0D7CF84E991E0D4CF81E292E0C8
:10303000D1CF83E292E0CECF84E292E0CBCF85E2A3
:1030400092E0C8CF86E292E0C5CF87E292E0C2CF9D
:103050008AE292E0BFCF8FE690E0BCCF80E790E0BD
:10306000B9CF0895882329F19CEF980F913A20F465
:103070000E949E190C946B1990E2980F983050F4AE
:10308000877091E001C0990F8A95EAF7892F0E9415
:10309000C419F0CF9BE5980F933020F490E080E0C6
:1030A0000C948516885A873120F490E080E00C94C7
:1030B0009B1608950E94DD190E94B0190C946B199B
:1030C0000E94CC190C945A18FF920F931F93CF9320
:1030D000DF9300D000D01F92CDB7DEB78C010E94E5
:1030E000401A81112DC085E0F801DE011196019092
:1030F0000D928A95E1F7F801408151812381348155
:1031000081E02115310531F05F3F19F481E04F3F37
:1031100009F080E080FD14C0F801028149835A83E0
:103120000B83722F3D832C83602F8D810E94321977
:10313000F82E892F82958F70823068F08E30D9F109
:103140000F900F900F900F900F90DF91CF911F91E4
:103150000F91FF900895192F1F70907F11F0129515
:10316000107F0023A1F0112329F0812F0E94CF1995
:103170000E946B198F2D0F900F900F900F900F9052
:10318000DF91CF911F910F91FF900C9473178F2DAA
:103190000E9432181123A1F2812F0E94D5190F909D
:1031A0000F900F900F900F90DF91CF911F910F9183
:1031B000FF900C946B19F110C3CF002309F4C0CF1A
:1031C0000E946018FFEF20E782E0F150204080402D
:1031D000E1F700C000000F900F900F900F900F903C
:1031E000DF91CF911F910F91FF900C94E31ACF9331
:1031F000DF93CDB7DEB72A970FB6F894DEBF0FBEC8
:10320000CDBF942F4E83252F5F83688779878A8768
:1032100049855A8581E0452B31F02F3F19F481E033
:103220009F3F09F080E080FD07C04E815F81688587
:1032300079858A850E942F1A85E0FE013696DE0187
:10324000119601900D928A95E1F7CE0101960E94A8
:1032500064182A960FB6F894DEBF0FBECDBFDF917B
:10326000CF910895CF93DF9300D000D01F92CDB7B8
:10327000DEB7942F4983252F5A837C838D834C811D
:103280005D8181E0452B31F02F3F19F481E09F3FB4
:1032900009F080E080FD15C060917D0470917E048E
:1032A00080917F04909180040E94E01969817A8165
:1032B0000F900F900F900F900F90DF91CF910C9483
:1032C000DC0790E080E00F900F900F900F900F9030
:1032D000DF91CF910895E0911503F091160380914D
:1032E0008A048083E0911503F09116038081909108
:1032F0008904892B808380911503909116030C9487
:103300007A162091150330911603F90132969FEF3A
:1033100040E05191851751F09F3F19F4511101C0C0
:10332000942F4F5F4630A9F79F3F09F40895290F66
:10333000311D97FD3A95F901828308952091150377
:1033400030911603F9013296285F3F4F919189130E
:1033500003C0DF0111971C92E217F307B9F7089534
:1033600081E090E0E0911503F0911603E80FF91F5A
:103370001082019688309105A9F7089590918A04EA
:10338000892B80938A040895982F909580918A04C0
:10339000892380938A04089510928A040895909155
:1033A0008904892B809389040895982F90958091A2
:1033B00089048923809389040895109289040895CB
:1033C000CF92DF92EF92FF926C01EE24FF2420E077
:1033D000C114D104E104F10419F0C701B60120E1E0
:1033E000C72ED82EE92EFF24C114D104E104F10424
:1033F00019F0285FC701B6016B017C0154E0F69417
:10340000E794D794C7945A95D1F7C114D104E10435
:10341000F10419F02C5FC701B6016B017C0142E099
:10342000F694E794D794C7944A95D1F7C114D10480
:10343000E104F10419F02E5FC701B6019695879556
:1034400077956795672B682B692B09F02F5F822F83
:10345000FF90EF90DF90CF90089508950895CF9357
:10346000DF9300D000D01F92CDB7DEB70F900F9042
:103470000F900F900F90DF91CF9108950C945A17F1
:1034800080E0089583B7817F8C6083BF83B78160BC
:1034900083BF7894889583B78E7F83BF0895CF9339
:1034A0000E9471170E94930E0E947217C0E08C2F29
:1034B0000E94D107892B31F4CF5FC830C1F780E07B
:1034C000CF91089581E0FCCF0E94DA070C94601838
:1034D0001F920F920FB60F9211248F939F93AF9369
:1034E000BF9380918C0490918D04A0918E04B09133
:1034F0008F044196A11DB11D80938C0490938D047F
:10350000A0938E04B0938F04BF91AF919F918F9140
:103510000F900FBE0F901F90189582E084BD93E02E
:1035200095BD9AEF97BD80936E0008952FB7F894DC
:1035300080918C0490918D04A0918E04B0918F04A1
:103540002FBF08952FB7F89460918C0470918D046B
:1035500080918E0490918F042FBF08959C014FB7E6
:10356000F89480918C0490918D04A0918E04B09178
:103570008F044FBF821B930B089578941F920F9274
:103580000FB60F9211248F939F93AF93BF938091A7
:103590008C0490918D04A0918E04B0918F040196BB
:1035A000A11DB11D80938C0490938D04A0938E0473
:1035B000B0938F04BF91AF919F918F910F900FBEE9
:1035C0000F901F9018950E943F15F89487E797E792
:1035D000909301088093000887E090EBDC018093D2
:1035E0009D0490939E04A0939F04B093A00488E14F
:1035F0009CE00FB6F894A895809360000FBE90935E
:103600006000FFCFEE0FFF1F0590F491E02D0994AD
:04361000F894FFCF5C
:1036140000010001055C030000FF210F260F240FA9
:0E362400250F6B0F0181040008000400020056
:00000001FF
