:100000000C9488020C94E8060C94AB060C94FE0247
:100010000C94FE020C94FE020C94FE020C94FE0260
:100020000C94FE020C94FE020C94E5150C94FE0256
:100030000C94D31A0C94FE020C94FE020C94FE0253
:100040000C94FE020C94FE020C94FE020C94FE0230
:100050000C94130F0C94281B0C94FE020C94FE02BB
:100060000C94FE020C94FE020C94FE020C94FE0210
:100070000C94FE020C94FE020C94FE020C94FE0200
:100080000C94FE020C94FE020C94FE020C94FE02F0
:100090000C94FE020C94FE028800EA44E944E24417
:1000A0000400050006000700080009000A000B0014
:1000B0000C000D000E000F001000110012001300C4
:1000C0001400150016001700180019001A001B0074
:1000D0001C001D001E001F00200021002200230024
:1000E0002400250026002700280029002A002B00D4
:1000F0002C002D002E002F00300031003200330084
:100100003400350036003700380039003A003B0033
:100110003C003D003E003F004000410042004300E3
:100120004400450046004700480049004A004B0093
:100130004C004D004E004F00500051005200530043
:100140005400550056005700580059005A005B00F3
:100150005C005D005E005F006000610062006300A3
:10016000640065A185006700680069006A006B0093
:100170006C006D006E006F00700071007200730003
:10018000890087008A008B00E000E100E200E300C4
:10019000E400E500E600E7000100010001000100C5
:1001A000EA4401000100E2440100010001000100F5
:1001B000460001004A004B000100010047004800D2
:1001C00001000100E94401000100010001000100FB
:1001D000010001003A003B003C003D003E003F00B2
:1001E0004000410042004300010035004C0039004E
:1001F0000100440045005200490001000100500088
:100200004F0029004D004E00510001000100010087
:1002100001000100010001000100010001000100D6
:1002200001000100010001000100010001000100C6
:100230000100010001004D004A004E004B0001008A
:1002400001000100010001000100010001000100A6
:100250000100010001000100010001000100010096
:100260000100010001000100010001000100010086
:100270000100010001000100010001000100010076
:10028000490001000100010001000100010001001E
:100290000100010001000100007B46010203763AE3
:1002A000687F6577482B353B6978796439141E3C43
:1002B0006A7A1D16041A1F3D6B061B070821203E93
:1002C0006C2C19091715223F6D11050B0A1C2340D0
:1002D0006E7E100D182425416F360E0C1227264213
:1002E0007037380F33132D43717534322F2E44720B
:1002F0007C7D28303174457351504A524D492A54FF
:1003000066594F5C5F4C4B4E62635A5D5E60295389
:1003100067585B56576147554842403E3C3A3B451B
:100320006843413F3D2B357E697A790078141E7B06
:100330006A7C1D16041A1F7F6B061B0708212065A7
:100340006C2C19091715224A6D11050B0A1C234C38
:100350006E49100D182425516F360E0C1227264FAA
:100360007037380F33132D52717534502F2E4E7253
:10037000397D28304D314B735464586776012A77A4
:100380003259745C5F66020362635A5D5E60295392
:1003900044575B565561474680291E1F2021222362
:1003A000242526272D2E2A2B141A0815171C180C65
:1003B00012132F302878041607090A0B0D0E0F337D
:1003C000343579311D1B06190511103637387D5526
:1003D0007A2C393A3B3C3D3E3F4041424353475FD4
:1003E0006061565C5D5E57595A5B6263464864447F
:1003F00045677B7F650301025250514F68696A6B04
:100400006C6D6E6F7071725800494C754A4D734B2C
:100410004E767C777E7466543403490042004D006A
:1004200020005000430020006B006500790062004E
:100430006F00610072006400200063006F006E00B6
:100440007600650072007400650072000000080309
:1004500054004D004B0000000403090409023B0056
:10046000020100A03209040000010301010009217A
:10047000110100012240000705810308000A090458
:1004800001000103000000092111010001222200E6
:10049000070583032000011201100100000008ED90
:1004A000FEEE1B0102010200010631FF0974A101E9
:1004B0000975150026FF009520750881020976153B
:1004C0000026FF00952075089102C005010906A1CC
:1004D00001050719E029E715002501950875018137
:1004E0000295017508810105081901290595057511
:1004F0000191029501750391010507190029FF1566
:100500000026FF00950675088100C0001F07AE0E8B
:1005100011241FBECFEFD0E2DEBFCDBF04B603FE75
:1005200049C080919D0490919E04A0919F04B09138
:10053000A0048730904BA740B04B09F03BC010920D
:100540009D0410929E0410929F041092A00414BE69
:100550000FB6F894A8958091600088618093600040
:10056000109260000FBE109201081092000889E0FE
:10057000E3E0F0E080935700E491E695E370E1500A
:1005800020E030E2E33040F4F0E0EE0FFF1FE95EE0
:10059000FC4F2081318100C080E090E0A2E0B0E01B
:1005A000821B930BA109B109B595A79597958795DE
:1005B000FC01099513E0A0E0B3E0E0EFF6E300E012
:1005C0000BBF02C007900D92AE31B107D9F724E0FE
:1005D000AEE1B3E001C01D92AD39B207E1F712E020
:1005E000C8E8D2E004C02197FE010E946D1BC63806
:1005F000D107C9F70E9452110C94761B0C9400008D
:100600005E980895FC018AB1938D909598239AB9CC
:100610009BB1838D892B8BB90895FC018AB1938D91
:10062000909598239AB98BB1938D892B8BB985E0DE
:100630008A95F1F7000099B1838D982381E009F440
:1006400080E00895FC018BB1948D909598239BB91F
:100650009AB1848D892B8AB90895FC018AB1948D51
:10066000909598239AB99BB1848D892B8BB9089565
:10067000FC018AB1948D909598239AB98BB1948D91
:10068000892B8BB985E08A95F1F7000099B1848DAB
:10069000982381E009F480E008950F931F93CF938E
:1006A000DF938C01EB01C8010E940D03882341F008
:1006B000209731F085E08A95F1F700002197F3CF7C
:1006C000CE01DF91CF911F910F9108950F931F934A
:1006D000CF93DF938C01EB01C8010E940D038111C0
:1006E00008C0209731F085E08A95F1F70000219746
:1006F000F3CFCE01DF91CF911F910F910895CF934A
:10070000DF93EC010E940203CE01DF91CF910C94A4
:100710002D03FC018BB1938D909598239BB98AB1E1
:10072000938D892B8AB9CF010C942D03CF93DF933E
:10073000EC010E940003CE01DF91CF910C947F0366
:100740005E9A0C948903FC0111821082128213823A
:1007500080E090E895838483178210860895CF9374
:10076000DF93EC012E9826982F9827980E948903F2
:10077000569A5E9A1DBA85E08093690010926A00CD
:100780008FEF8CBB83E08DBB5E9ACE010E94A303EA
:100790008AB18C6B8AB98BB183748BB90E94D30EEA
:1007A0000F9209B01F921FB61F920F93AF93BF9382
:1007B000A0910203B091030310905703B0991394D2
:1007C000112051F000B50F700D931D92112410925D
:1007D0005703B33009F4B1E0B09A00BC0FE0002237
:1007E00000918400007F002A0D92009085000D92F8
:1007F000A0930203B33009F4B1E0B0930303BF91B7
:10080000AF910F911F901FBE1F900F90DF91CF915E
:100810000895CF93DF93EC018F8190E001968F7064
:10082000992728852817190641F4CE010E94A303B1
:100830000E940003CE010E947F032FB7F894988591
:100840008F81891761F0FE01E90FF11D81859F5F9E
:100850009F70988790E02FBFDF91CF9108958FEF21
:100860009FEFF9CF0F931F93CF938C01CAE1C15033
:1008700069F0C8010E9409048F3F980749F48FE985
:100880009FE00197F1F700C00000F1CF8FEF9FEFDD
:10089000CF911F910F9108954F925F926F927F9227
:1008A0008F929F92AF92BF92CF92DF92EF92FF9280
:1008B0000F931F93CF93DF93EC011B828C819D815B
:1008C0008115904809F0F9C05E9A2BE0D22ECC2415
:1008D000C394062F10E0BB24B39436E0432E47E0C8
:1008E000542E58E0A52E65E0962E74E0872EE3E0A6
:1008F0007E2EF2E06F2ECE010E9489038FE193E0FD
:100900000197F1F700C00000CE010E9422038FE1A1
:1009100093E00197F1F700C00000CE010E940203AE
:1009200068E97AE3CE010E944D03892B59F4BB821A
:100930008B81813009F0ACC0DA94DD2009F4A8C0C5
:100940001B82D9CFF12CE12C90E59A95F1F7C801E3
:100950000E2C02C0959587950A94E2F780FF0DC092
:10096000CB24CE010E942D0362E370E0CE010E94F1
:100970006603892B31F46B82DBCFCE010E94220308
:10098000F3CF62E370E0CE010E944D03892B11F496
:100990007B82CECF2FEFE21AF20A88E0E816F1044C
:1009A00099F690E59A95F1F7CE01CC2059F00E9486
:1009B0002D0362E370E0CE010E946603892B29F4C7
:1009C0008B82B6CF0E942203F4CF62E370E0CE01A7
:1009D0000E944D03892B11F49B82AACF20E52A9512
:1009E000F1F7CE010E942D039CE2E92EFF24F3943F
:1009F000CE010E943803882359F0E114F10451F02C
:100A000085E08A95F1F7000091E0E91AF108F0CF4E
:100A1000EF2811F44B828CCF8CE2E82EFF24F39464
:100A2000CE010E94380381110BC0E114F10451F092
:100A300025E02A95F1F7000081E0E81AF108F0CFEF
:100A4000EF2811F45B8274CF6CE271E0CE010E945A
:100A50006603892B11F4AB826BCFCE010E94A303F6
:100A6000CE010E947F030E940003CE01DF91CF914F
:100A70001F910F91FF90EF90DF90CF90BF90AF90BC
:100A80009F908F907F906F905F904F900C94320466
:100A90008C819D81998388838B8180618B83CE013A
:100AA0000E9489038FE39FE10197F1F700C00000E6
:100AB000CE010E947F030E9400038FEF9FEFDF9122
:100AC000CF911F910F91FF90EF90DF90CF90BF904B
:100AD000AF909F908F907F906F905F904F90089510
:100AE000FC0190B5428D80918C04248135812115C3
:100AF000304849F58683248135813695279535839D
:100B0000248321E030E001C0220F4A95EAF7892FC3
:100B1000822329F0848195819068958384838481E0
:100B20009581992780359105C1F160F58031910556
:100B3000A1F108F5892B29F1128284819581918395
:100B4000808380E809C02681821B8530A0F28481E1
:100B500095819183808380E283839BB1838D80958F
:100B600089238BB98AB1938D892B8AB980E090E86B
:100B70009583848306C08032910519F080349105F5
:100B8000D9F60895803A910509F44AC090F4803866
:100B90009105B9F38039910579F684819581918326
:100BA00080838481958180399A4A09F068C082E007
:100BB000D3CF803C910521F0803D910571F3BCCFEE
:100BC000848195819183808384819581892F992760
:100BD0009583848382E28283248135818781DF014A
:100BE000A80FB11D19962C938F5F8F70878390E0AB
:100BF00001968F70992720852817190651F45E9A5F
:100C00009BB1838D809589238BB98AB1938D892B74
:100C10008AB9978180859813A9CF80E48383A6CF72
:100C20008281811124C084E699B1238D922369F4D5
:100C3000882359F095E09A95F1F700008150F4CFA0
:100C400025E02A95F1F70000815099B1238D922378
:100C500099F08111F5CF848195819183808384817E
:100C60009581892F99279583848381E2B4CF8281EE
:100C7000813209F086CFEFCF811183CFECCF848111
:100C800095812481358196FB882780F956E0369539
:100C900027955A95E1F78227282F30E0982F9E7FDD
:100CA00021F0359527958170F6CF811102C081E042
:100CB00053CF8481958197FF0CC080E1828384812A
:100CC000958126E0969587952A95E1F7958384830B
:100CD00083CF81E1F3CF1F93CF93DF93EC01162FE6
:100CE0006DEE0E944C048A3F910539F4612FCE01CC
:100CF000DF91CF911F910C944C04DF91CF911F9104
:100D000008951F920F920FB60F9211240BB60F92F7
:100D10002F933F934F935F936F937F938F939F9303
:100D2000AF93BF93EF93FF938EE193E00E94700522
:100D3000FF91EF91BF91AF919F918F917F916F91B3
:100D40005F914F913F912F910F900BBE0F900FBE6F
:100D50000F901F9018950F9209B01F921FB61F9207
:100D60000F93AF93BF93A0910203B0910303109030
:100D70005703B0991394112051F000B50F700D93E3
:100D80001D92112410925703B33009F4B1E0B09AC8
:100D900000BC0FE0002200918400007F002A0D9229
:100DA000009085000D92A0930203B33009F4B1E0E6
:100DB000B0930303BF91AF910F911F901FBE1F907F
:100DC0000F90499904C04E9902C09BCF01C018955D
:100DD0000F9209B01F921FB61F920F93AF93BF934C
:100DE000A0910203B091030310905703B09913949C
:100DF000112051F000B50F700D931D921124109227
:100E00005703B33009F4B1E0B09A00BC0FE0002200
:100E100000918400007F002A0D92009085000D92C1
:100E2000A0930203B33009F4B1E0B0930303BF9180
:100E3000AF910F911F901FBE1F900F901895EEE17C
:100E4000F3E0118210821282138280E090E8958391
:100E50008483168281E0818F128E92E0938F848F3B
:100E60000895262F30E094E0359527959A95E1F77F
:100E70002770E62FEF70823079F08330B9F081303F
:100E8000F9F480E1289F90011124E20FF32FF11D66
:100E9000E856FC4F8491089580E1289F9001112429
:100EA000E20FF32FF11DE85EFC4FF4CF80E1289FA5
:100EB00090011124E20FF32FF11DE856FD4FEACF08
:100EC00080E80895E7E4F3E0118210821382128231
:100ED0001582148217821682118610861386128656
:100EE000158614861786168608951F93CF93DF9371
:100EF000FC0184810E94310787FD20C0182F1F70DC
:100F0000C82FD0E094E0D595C7959A95E1F7612F69
:100F10008C2F0E94C817811111C0CC0FDD1FC95B37
:100F2000DC4F21E030E002C0220F331F1A95E2F7B8
:100F300088819981822B932B99838883DF91CF912C
:100F40001F9108951F93CF93DF93FC0184810E942A
:100F5000310787FD22C0182F1F70C82FD0E094E002
:100F6000D595C7959A95E1F7612F8C2F0E94C817E8
:100F7000882399F0CC0FDD1FC95BDC4F81E090E046
:100F800002C0880F991F1A95E2F7809590952881E5
:100F900039818223932399838883DF91CF911F9195
:100FA0000895CF93DF93CBE3D3E01B821A821C8298
:100FB0001D820E94620788819981DF91CF910C94F4
:100FC000AF0380918B04816080938B040C94620743
:100FD000E82FF0E0EE0FFF1FE95BFC4F808191816D
:100FE00008950C946207E72FE77028E0829FC00104
:100FF00011248E0F911D24E0880F991F2A95E1F787
:10100000E62FEF70E80FF92FF11DEE0FFF1FE856E6
:10101000FF4F859194910895FC018481823070F096
:10102000843061F062FB992790F960FD926061FD68
:101030009460692F808191810C946B060895682FCC
:101040008BE393E00C940C08CF92DF92EF92FF9227
:101050000F931F93CF93DF937C016B010E94011BC1
:101060008C010E94040FF701808191810E94090484
:10107000EC01019649F4C8010E94191B8C159D05CD
:1010800018F40E94DB0EEFCFCE01DF91CF911F91BC
:101090000F91FF90EF90DF90CF9008950F931F93E3
:1010A000CF93DF93FC0180819181DC0112962C911A
:1010B000213109F18F0162EF0E944C048F3F9807A4
:1010C000E9F08A3F9105E9F464EF71E0C8010E94FC
:1010D00024088F3F9807C1F0D82FCC2764EF71E028
:1010E000C8010E942408DE01A82BCD01DF91CF9119
:1010F0001F910F9108958DEF9FEFF8CF8FEF9FEF26
:10110000F5CF8EEF9FEFF2CF90E080E0EFCF862F0C
:10111000E4EEE60FE83408F07EC0F0E0EE56F74F5C
:101120000C946D1BF008FE080B090B09E2080B0973
:101130000B090B090B090B090B090B090B090B090F
:101140000B090B090B090B09E4080B09E6080B094D
:101150000B090B090B0902090B090A0900090B0904
:101160000B090B090B090B090B090B090B090B09DF
:101170000B090B090B090B09DA08F608E808FA084D
:101180000B09EA080B09EE080B09F808EC08FC0843
:10119000F208F4080B090B090B090B090B090B09E1
:1011A0000B09DC08DE08E008040906090B090B0935
:1011B0000B09080985E508958AE508958BE50895EA
:1011C0008CE508958DE508958EE508958FE50895E1
:1011D00080E6089581E6089582E6089583E60895FD
:1011E0008FE6089581E7089582E7089584E70895DA
:1011F00085E7089587E7089588E708958AE70895C1
:101200008CE708958FE7089580E7089589E70895AA
:101210008BE7089584E50895CF93DF93FC019185D2
:10122000923009F447C0EF01933030F4992369F00C
:10123000913011F1118615C0933009F445C09430F6
:10124000C9F7653CB9F765E531C0603E41F0613EE4
:1012500061F067FD0CC0CF010E94750702C081E0FC
:10126000898780E0DF91CF91089582E0F9CF6F7791
:10127000CF010E94A207F5CF6633E1F268F46A322B
:10128000C9F267FD0EC0CE010E948708682FCE010B
:101290000E9475071986E5CF6A3A61F2663B89F7C5
:1012A000C9CF6F77CE010E948708682FCE010E94B8
:1012B000A207F0CF6D3129F06D3909F0BBCF84E082
:1012C00001C083E08187CDCF653409F0B3CF65E5F8
:1012D000DECF862FEDEFE60FE13808F0C6C0F0E074
:1012E000EC58F64F0C946D1B230A1F0A350A350A79
:1012F000350A350A350A350A250A210AF509350A5B
:10130000350A1F0A370A350A350AF509230A350A4C
:10131000350A210A350A350A350A350A350A350AE9
:10132000F709230A190A350A1D0A350A350A350A4A
:10133000F909250A350A350A2D0A350A350A350A0A
:10134000FB09270A350A1B0A350A1F0A350A350A1E
:10135000310A290A350A2B0A210A350A350A350AC3
:101360002F0A380A350A350A350A350A350A350A88
:10137000350A380A350AFD09350A350A250A350ABB
:10138000350A270A350A350A350A350A350A350A73
:10139000350A350A350AFF09350A350A350A2D0A94
:1013A000350A350A350A350A350A350A350A350A45
:1013B000350A350A010A350A030A050A350A350ACB
:1013C000350A070A090A0B0A350A0D0A0F0A350AF7
:1013D000350A350A330A110A350A150A130A170A9B
:1013E000350A350A350A350A270A89E1089587E161
:1013F00008958FE1089587E2089580E6089582E6D2
:1014000008958CE5089583E508958FE2089589E3B2
:10141000089587E308958FE3089587E408958FE49E
:10142000089586E508958EE508958FE7089580E094
:10143000089585E608958EE608958FE6089588E07C
:10144000089580E1089588E1089580E2089588E292
:10145000089580E3089588E3089580E5089587E579
:1014600008958FE508958DE608958F7708958FE0AC
:101470000895862F623309F447C0F0F4643209F40A
:101480004BC070F46C3109F44DC020F46B3109F499
:101490004DC008956D31F1F1633209F449C00895EA
:1014A0006B3209F447C018F46A3261F108956C3266
:1014B00009F16D32C9F108956234D1F040F464331A
:1014C00099F0A0F06A3311F16C33B1F008956B34E8
:1014D000B9F028F4633491F0643401F108956D3467
:1014E000F9F06136A9F0089580E1089588E1089542
:1014F00080E2089588E2089580E3089588E30895DE
:1015000080E4089588E4089580E5089587E50895C6
:101510008AE608958FE5089587E1089585E60895A0
:101520008EE608958FE6089581E508958FE1089588
:1015300087E2089588E00895862F6B35D9F058F436
:10154000613101F118F46E3089F00895633161F072
:10155000643571F00895623689F018F46E3560F0E4
:1015600008956C3769F0089581E1089584E5089540
:101570008BE508958DE508958AE608958EE0089537
:1015800087E708958FE00895862F613121F0613457
:1015900019F48CE7089583E10895CF93DF93EC016C
:1015A000EA85EB3008F03BC0F0E0E752F54F0C94D1
:1015B0006D1BE40A340B1A0B500B680B710B760B86
:1015C0007B0B800B850B8D0B8A819B8180599B4AFD
:1015D000029720F4CE010E949C0A682F643811F112
:1015E00058F46038B1F06338B1F01A8667FD1CC05A
:1015F000CE010E94750714C0613E49F0603F29F09A
:1016000082E0603E91F78A870BC081E0FCCF84E0E6
:10161000FACF89E0F8CF62E0CE010E9475071A8602
:1016200080E005C06FE7F8CF0E9462078FEFDF917F
:10163000CF9108958A819B8180599B4A029720F41B
:10164000CE010E94C40A682F693549F3603F51F00A
:10165000623129F31A8667FDE7CFCE010E9469093E
:10166000682FC6CF83E0CFCF8A819B8180599B4A68
:10167000029720F4CE010E949C0A682F633849F03B
:10168000643861F01A8667FDCFCFCE010E94A207B1
:10169000C7CF62E0CE010E94A207C1CF6FE7FACFA9
:1016A0008A819B8180599B4A029720F4CE010E9437
:1016B000C40A682F623109F4B2CF693509F4AFCF9B
:1016C0001A8667FDB1CFCE010E946909682FDDCF70
:1016D000643129F0603F09F0A2CF86E094CF85E025
:1016E00092CF673709F09BCF60E096CF87E06431F7
:1016F00009F489CF94CF88E0603F09F484CF8FCF7D
:10170000673709F08CCF60E0C5CF603F11F48AE005
:101710007ACF1A860E94390AA3CF1A860E94390A04
:10172000D5CF862F6C3549F018F4633161F00895F8
:10173000663729F06E3729F0089581E508958EE720
:10174000089586E708958DE50895862F663809F493
:1017500067C030F5673609F44DC088F46C3509F47C
:1017600069C038F4683009F469C0673509F460C0AD
:101770000895643609F442C06536D1F1089567379B
:1017800009F454C028F46D36B9F16E3679F1089534
:101790006438B1F108F042C06C3709F44DC00895C7
:1017A0006C38D1F168F4693889F128F4673851F15F
:1017B000683851F108956A3859F16B3859F1089534
:1017C0006F3881F028F46D3849F06E3849F008958B
:1017D000613941F148F0623939F1089587E7089598
:1017E00087E608958FE708958BE7089585E60895C5
:1017F0008DE6089582E6089584E608958EE60895BC
:101800008CE7089582E008958EE708958CE00895AE
:1018100083E0089584E0089585E0089588E00895C0
:1018200080E1089581E0089589E0089588E50895AC
:101830008CE5089583E5089588E6089586E7089580
:10184000CF93DF93EC016F3B29F048F486E5860FD8
:10185000823038F41B868FEFDF91CF9108956C3F73
:10186000C9F38B85813009F44BC040F0823009F414
:1018700083C0833009F49DC080E0EECF8A819B81D4
:1018800082392BEA920781F4CE010E94910B682FD6
:10189000663871F1B0F4633821F168F482E06038A1
:1018A000F1F067FF1FC0E8CF81399B4A89F7CE016D
:1018B0000E94A50BECCF6438C9F0653891F768E653
:1018C00011C06C38C9F030F46738A1F06B3849F7B3
:1018D00061E008C06D3891F081E0603F11F78B87BF
:1018E000CBCF62E0CE010E947507C6CF6FE7FACF7B
:1018F00068E7F8CF60E0F6CF69E0F4CF6AE0F2CFB6
:101900001B868A819B8182392BEA9207C1F4CE0122
:101910000E94910B682FEDE7E60FEB3050F5F0E0F9
:10192000EC56F34F0C946D1BA60CAB0CAD0CAF0C2E
:10193000B10CB90CB90CB90CB30CB50CB70C81399E
:101940009B4A49F7CE010E94A50BE4CF62E0CE018D
:101950000E94A20791CF6FE7FACF68E6F8CF68E759
:10196000F6CF60E0F4CF61E0F2CF69E0F0CF6AE05B
:10197000EECF67FD81CFEBCF6532A9F038F4663149
:10198000A1F06E31A1F00E9462070BC0663229F00F
:1019900083E0603F09F4A3CFF6CF6DE5CE010E944E
:1019A00075071B8669CF63E5F9CF61E5F7CF60E086
:1019B000F5CF6E3181F020F4663129F761E505C07D
:1019C000653239F06632F9F66DE5CE010E94A20764
:1019D000E8CF63E5FACF60E0F8CFCF93DF93EC0177
:1019E000E881F9818381882391F08381807551F4A6
:1019F00088858B3011F48CE088878381823011F4E4
:101A00008DE088871382E881F98111821082E88154
:101A1000F98182818823B9F092818D81981799F09C
:101A200085FF03C0928194FD05C084FF08C08281B8
:101A300085FF05C088858B3011F48CE08887828112
:101A40008D8311821082E885EE3008F045C1F0E008
:101A5000E45DF24F0C946D1B3A0D450D550D610D73
:101A60006F0D790D8A0D970DAD0DBF0D4E0E550EF4
:101A7000980E8F0E0E94011B9F838E83888199810F
:101A80000E94960381E0888727C1888199810E94FE
:101A900009040196D1F78E819F810E94191B893B11
:101AA0009B4008F419C182E0EECF6FEF88819981E5
:101AB0000E944C048A3F910511F486E0E4CF83E054
:101AC000E2CF888199810E94A0032E98269A2F98B0
:101AD000279A0E94011B9F838E8384E0D4CF8E813E
:101AE0009F810E94191B853F914008F4F5C085E055
:101AF000CACF2E9826982F982798888199810E947E
:101B0000A303888199810E9496030E94011B9F83F1
:101B10008E83D3CF888199810E940904019609F4AC
:101B2000DBC00E94011B9F838E8387E0ACCF8E8138
:101B30009F810E94191B853F914010F089E08887A2
:101B4000888199810E940904019609F4C5C00E9408
:101B5000011B9F838E8388E096CF8E819F810E9498
:101B6000191B853F914010F089E088878881998111
:101B70000E940904019609F4AFC089E084CFCE0128
:101B80000E944E089B838A83009721F482E08C8315
:101B90008AE079CF8F3F980711F481E0F8CF9C015C
:101BA0002D5F3F4F2230310588F38F3F910511F4AF
:101BB00084E0EDCF9C0125583B4A2230310520F0CE
:101BC00082392BEA920791F460EF888199810E9413
:101BD0004C048A3F9105D1F663E0888199810E9487
:101BE0004C048A3F910591F683E0D1CF9C012059A6
:101BF0003B4A2230310560F582E08C8360EF8881BA
:101C000099810E944C048A3F9105C9F08A819B8189
:101C100081399B4A09F0BCCF60EF888199810E948D
:101C20004C048A3F910509F0B3CF63E08881998124
:101C30000E944C048A3F910509F0AACFD5CF62E8F3
:101C4000888199810E944C048A3F9105F9F6A0CFC2
:101C5000803B2FEB920741F2882781152BEA9207F0
:101C600009F494CF81152FEB920709F4BDCF8115AC
:101C70009F4709F4B9CF60EF888199810E944C0495
:101C80008A3F910509F0A0CF62E0888199810E9486
:101C90004C048A3F910509F097CF78CF8C81823030
:101CA00021F18330E9F08BE08887888199810E9457
:101CB0000904682F282F392F2F3F320769F08C81B4
:101CC000843051F02115310519F02F3F310591F481
:101CD0000E9462070E94CB1881E0DF91CF910895A6
:101CE00068EF888199810E944C040E94D9160E9455
:101CF0001F08D9CF823059F0833069F0813061F705
:101D0000CE010E940C098F3F39F78CE0BCCECE018A
:101D10000E94CD0AF8CFCE010E94200CF4CF6EEFC6
:101D2000888199810E944C048A3A910509F425CF53
:101D30001B821A821C821D820E94620788819981FF
:101D40000E94AF030E9462070E94CB181886C4CF7E
:101D50000E94DB0E8BE393E00C94ED0CEBE3F3E0DD
:101D60008EE193E091838083138212821482158224
:101D700010861186128613860C946207CF93C82FA3
:101D8000982F92959F7087E39A3008F480E3890F2B
:101D90000E944210CF7087E3CA3008F480E38C0FB2
:101DA000CF910C9442101092800081E080938100CA
:101DB00080936F000895E0910003F09101038091FA
:101DC0000203909103038E179F07D1F081810E9437
:101DD000BE0EE0910003F091010380810E94BE0ECF
:101DE00080E20E94421080910003909101030296CC
:101DF000811523E0920729F090930103809300035B
:101E0000089580E091E0F8CF209102033091030320
:101E100080910003909101032817390709F4089570
:101E20000E94DB0EF1CF0F920FB60F920090570376
:101E3000039400925703B1F4AF93BF93A0910203B0
:101E4000B09103030F9300B50F700D9300E00D9355
:101E5000A0930203B33009F4B1E0B09303030F91F0
:101E6000BF91AF910F900FBE0F90189580916404B1
:101E7000089508950895CF93DF932091940424301A
:101E800011F521E02093E90021E8215021F0309163
:101E9000E80035FF1BC02091E80025FF14C0EC01CD
:101EA00050E040E068E070E00E9400138091E8009C
:101EB0008E778093E80088E0FE01ACE5B4E0019005
:101EC0000D928A95E1F7DF91CF910895EFE3F1E06C
:101ED0003197F1F700C00000D8CFCF93C0915A03DB
:101EE000C1110BC00E940D1B643C79408105910516
:101EF00020F081E080935A03C1E08C2FCF910895A8
:101F0000089580919304811104C00E9467150C9478
:101F1000C9150895109293040895089542E061EC64
:101F200081E00E947E1246E261EC83E00C947E1216
:101F300080919604833009F452C030F4813059F115
:101F4000823009F48EC008958A3009F47AC08B304B
:101F500009F460C0893009F041C080919504813254
:101F6000E9F58091990490919A04892BB9F58091B3
:101F7000E800877F8093E8008091E80082FF2AC014
:101F80008091F100809364048091E8008B778093C6
:101F9000E8000C94B21280919504813AF9F4809192
:101FA000E800877F8093E8008091990490919A04DB
:101FB000892B61F468E08CE594E070E00E94511395
:101FC0008091E8008B778093E800089560E090E0CE
:101FD00080E0F3CF809194048111CECF0895809159
:101FE0009504813AD9F78091990490919A04892BAC
:101FF000A9F78091E800877F8093E8008091E8004E
:1020000080FFFCCF809114038093F1008091E80061
:102010008E77BDCF80919504813201F7809199042C
:1020200090919A04892BD1F68091E800877F809364
:10203000E8000E94B21280919704809314030C94DC
:10204000CB1880919504813249F68091E800877F12
:102050008093E8000E94B2128091980480936504F6
:10206000089580919504813A09F0B8CF8091E800F5
:10207000877F8093E8008091E80080FFFCCF80910B
:102080006504C2CFFF920F931F93CF93DF93D82F96
:102090000FB607FE46C080919404843079F0809199
:1020A000070390E001962091090330E082239323F7
:1020B000209108032817190609F0CEC00E946D0F61
:1020C00081110FC08091070390E0019620910903D0
:1020D00030E082239323209108032817190609F082
:1020E000BBC00E94011B8C01C091E900CF708091A0
:1020F000EC0080FD37C080E0C82B83E08093E900CE
:1021000085E0F82E8091EB0085FD08C08091EB0002
:1021100080FF04C08091EE0087FD44C0CF70C09363
:10212000E900E09107038E2F90E0019620910903CA
:1021300030E082239323209108032817190609F41D
:1021400084C08091050390910603E80FF92FF11DDB
:10215000D083809107038F5F909109038923809337
:10216000070373C080E8C8CFE0910503F091060330
:10217000E80FF11D90818F5F2091090382238093E6
:1021800008039093F1008091E80085FD0BC08091D9
:10219000E80080FF07C08091E8008E778093E80018
:1021A000F09204038091080390910703981759F166
:1021B0009091E80095FDD8CF80E02CC01092F100FE
:1021C00033C08091070390E001962091090330E02D
:1021D00082239323209108032817190609F09ECF24
:1021E00080910403882309F499CF0E94011B9C016C
:1021F0008017910709F486CF909104039150909332
:10220000040389017FCF8091E80085FFD5CFD0936B
:10221000F10081E02091F2003091F300232B79F05E
:102220009091E80090FF0BC09091E80095FDC6CF1B
:102230009091E8009E779093E800F0920403882341
:1022400009F4BFCFCF70C093E90080E0DF91CF9158
:102250001F910F91FF900895E091070372CF0895A9
:102260008091640480935B03109264040E94F107E0
:102270000C94CB180C9430110E94AD1A80919204EA
:10228000882329F00E94BA1A81110C9468120895CB
:102290000E94CF1A80915B038093640408950C948C
:1022A00048110895CF9384B7877F84BF0FB6F89401
:1022B000A895809160008861809360001092600012
:1022C0000FBE80E890E00FB6F89480936100909381
:1022D00061000FBE8AE093E00E94D4160E94D107ED
:1022E0000E941C170E9467150E94C91578940E94CD
:1022F0001E1780919404843009F044C00E946D0F31
:10230000882309F43FC00E942F11C3E080919404F8
:102310008530E9F10E94981A0E9422172091E4006A
:102320003091E5008091580390915903281739079F
:1023300031F18091E4009091E500909359038093EE
:1023400058030E946D0F8823D1F08091940484304B
:10235000B1F49091E9009F708091EC0080FD1AC06B
:1023600080E0892BC093E9009091EB0090FF04C0BE
:102370009091EE0097FD2CC08F708093E9000E9431
:10238000B816C4CF0E94B8160E945111B2CF0E9455
:102390003C11BCCF80E8E5CFE0910503F091060346
:1023A000E90FF11D20819F5F3091090393239093E2
:1023B00008032093F1009091E80095FD09C09091E9
:1023C000E80090FF05C09091E8009E779093E800A8
:1023D0009091080320910703291721F02091E8002C
:1023E00025FDDACF2091F2003091F300232B21F26A
:1023F0009091E80090FFC0CF9091E80095FD06C055
:102400009091E8009E779093E800B6CF1092F1008B
:10241000F3CFE92FFF27E330F10551F150F4E1301C
:10242000F105C1F03297F9F0F0E0E0E090E080E0F3
:1024300015C0E132F10509F437C0E232F105A1F728
:102440006115710509F43FC089EA94E061307105B6
:1024500029F0EACFE2E1F0E087E994E0DA018D9338
:102460009C93CF010895EBE3F0E08CE594E0F6CF88
:1024700099278130910589F048F00297A9F6E8E1A3
:10248000F4E0E491F0E088E194E0E8CFE8E5F4E0FE
:10249000E491F0E088E594E0E1CFEEE4F4E0E4914B
:1024A000F0E08EE494E0DACFE9E0F0E08EE694E04C
:1024B0006115710599F2E9E0F0E087E894E0613098
:1024C000710561F2B1CFE0E4F0E08BEC94E0C6CFAF
:1024D00084E189BD86E189BD09B400FEFDCF80910C
:1024E000D8008F7D8093D8008091E0008260809337
:1024F000E0008091E00081FDFCCF0895982F973097
:1025000028F08F708093E90081E008959093E900AE
:10251000242F762F50E0981731F07091EC00209125
:10252000ED005091F00021FD02C09F5FE8CF309197
:10253000EB003E7F3093EB003091ED003D7F309318
:10254000ED003091EB0031603093EB007093EC00C4
:102550002093ED005093F0002091EE0027FDE5CF91
:1025600080E008958091950487FF13C08091E80072
:1025700082FF06C08091E8008B778093E80004C05A
:10258000809194048111F2CF08958091940488235E
:10259000D9F38091E80080FFF8CF8091E8008E7732
:1025A000ECCF2091E4003091E50085E69091EC00BD
:1025B00090FF06C09091E80090FF06C080E008956B
:1025C0009091E80092FDFACF90919404992391F0B4
:1025D000953091F09091EB0095FD10C04091E40092
:1025E0005091E5002417350709F381509A01F1F65F
:1025F00084E0089582E0089583E0089581E00895DD
:10260000AF92BF92CF92DF92FF920F931F93CF931F
:10261000DF936C01EB018A010E94D112F82E811127
:1026200025C00115110539F0F80180819181C81B81
:10263000D90BC80ED91EB12CA12C2097B9F08091CE
:10264000E80085FD24C08091E8008E778093E80043
:102650000E94B81601151105A1F0F8018081918141
:10266000A80EB91EB182A08285E0F82E8F2DDF91D1
:10267000CF911F910F91FF90DF90CF90BF90AF90BF
:1026800008950E94D1128823C1F2F82EEFCFF601EF
:1026900081916F018093F1002197FFEFAF1ABF0A7C
:1026A000CCCFFC0180919B0490919C0486179707E6
:1026B000A0F06115710529F49091E8009E77909340
:1026C000E80090E06115710551F4911108C0809106
:1026D000E80082FF33C080E00895BC01F2CF809112
:1026E00094048823B9F18530B9F18091E80083FD25
:1026F0002FC08091E80082FDEACF8091E80080FF42
:10270000E1CF2091F2003091F3006115710519F0CD
:102710002830310558F091E02830310509F090E07B
:102720002091E8002E772093E800CCCF8191809310
:10273000F100615071092F5F3F4FE7CF8091940402
:10274000882341F0853041F08091E80083FFBFCFBE
:1027500081E0089582E0089583E00895FC0180916E
:102760009B0490919C0486179707A0F06115710552
:1027700029F48091E8008E778093E80090E061155D
:10278000710551F4911108C08091E80082FF34C0B6
:1027900080E00895BC01F2CF809194048823C1F1B8
:1027A0008530C1F18091E80083FD30C08091E80060
:1027B00082FDEACF8091E80080FFE1CF2091F20016
:1027C0003091F3006115710519F02830310558F08A
:1027D00091E02830310509F090E08091E8008E7793
:1027E0008093E800CCCF84918093F10031966150C2
:1027F00071092F5F3F4FE6CF80919404882341F009
:10280000853041F08091E80083FFBECF81E00895DC
:1028100082E0089583E008951F93CF93DF93CDB7AF
:10282000DEB7AA970FB6F894DEBF0FBECDBFE5E9BD
:10283000F4E08091F100819324E0ED39F207C9F7CB
:102840000E94980F8091E80083FF44C08091950416
:10285000909196049A3008F03DC0E92FF0E0ED5CCD
:10286000FB4E0C946D1B3D1463146A1463146A14BC
:10287000C114E3146A143A154715803889F0823878
:1028800049F5809199048F70873020F58093E90095
:102890008091EB0085FB882780F91092E90006C043
:1028A0008091910490919204911182609091E8003E
:1028B000977F9093E8008093F1001092F10080914F
:1028C000E8008E772DC0282F2D7F21F48823D1F0AA
:1028D000823059F18091E80083FF0AC08091E800BE
:1028E000877F8093E8008091EB0080628093EB000B
:1028F000AA960FB6F894DEBF0FBECDBFDF91CF9181
:102900001F91089580919704813021F7933009F049
:1029100080E0809392041092E9008091E800877F24
:102920008093E8000E94B212D5CF80919704811164
:10293000F2CF809199048F702FEF280F263050F638
:102940008093E9002091EB0020FFE5CF933031F434
:102950008091EB0080628093EB00DDCF9091EB00E3
:1029600090619093EB0021E030E001C0220F8A9546
:10297000EAF72093EA001092EA008091EB00886069
:10298000EACF8111A7CF109197041F778091E300C0
:102990008078812B8093E3008091E800877F80938B
:1029A000E8000E94B2128091E80080FFFCCF809185
:1029B000E30080688093E30083E0111101C082E0AE
:1029C0008093940487CF8058823008F083CF809121
:1029D0009704909198048C3D23E09207A1F583E041
:1029E0008A838AE289834FB7F894DE01139620E048
:1029F0003EE051E2E32FF0E050935700E49120FFD6
:102A000003C0E295EF703F5FEF708E2F90E0EA30E9
:102A1000C0F0C7968D939D932F5F243159F74FBF18
:102A20008091E800877F8093E8006AE270E0CE0141
:102A300001960E9451138091E8008B778093E80003
:102A400049CFC096E7CF6091990470919A04AE0186
:102A50004F5F5F4F0E940912BC01892B09F43ACFE6
:102A60009091E800977F9093E80089819A810E9475
:102A7000AE13E1CF803809F02DCF8091E800877F39
:102A80008093E800809190048093F10018CF811129
:102A900021CF90919704923008F01CCF8091E800EC
:102AA000877F8093E800909390040E94B2128091F7
:102AB0009004882331F084E0809394040E948E0F68
:102AC00009CF8091E30087FDF6CF81E0F5CF0E942A
:102AD000D8150E94E015E0EEF0E0808181608083EF
:102AE000E8EDF0E080818F77808319BCA7EDB0E03E
:102AF0008C918E7F8C9380818F7E80831092930443
:102B000008950F931F93CF93DF930E94D8150E94CF
:102B1000E015C8EDD0E088818F7788838881806850
:102B2000888388818F7D8883E7EDF0E080818068ED
:102B3000808319BC10929404109290041092920415
:102B40001092910400EE10E0F80180818B7F808369
:102B500088818160888342E060E080E00E947E128C
:102B6000E1EEF0E080818E7F8083E2EEF0E0808114
:102B700081608083808188608083F80180818E7F7E
:102B80008083888180618883DF91CF911F910F912D
:102B90000895E8EDF0E080818F7E8083E7EDF0E03E
:102BA00080818160808381E0809393040C948115FF
:102BB000E8EDF0E080818C7F80831092E200089540
:102BC0001092DA001092E10008951F920F920FB652
:102BD0000F9211240BB60F922F933F934F935F9355
:102BE0006F937F938F939F93AF93BF93EF93FF93D5
:102BF0008091E10082FF0BC08091E20082FF07C05C
:102C00008091E1008B7F8093E1000E94B716809154
:102C1000DA0080FF19C08091D80080FF15C0809134
:102C2000DA008E7F8093DA008091D90080FF91C016
:102C300084E189BD86E189BD09B400FEFDCF81E054
:102C4000809394040E94810F8091E10080FF19C05D
:102C50008091E20080FF15C08091E2008E7F80931A
:102C6000E2008091E20080618093E2008091D800D0
:102C700080628093D80019BC85E0809394040E9400
:102C80003A118091E10084FF29C08091E20084FF25
:102C900025C084E189BD86E189BD09B400FEFDCF70
:102CA0008091D8008F7D8093D8008091E1008F7E45
:102CB0008093E1008091E2008F7E8093E20080911A
:102CC000E20081608093E20080919004882309F4FF
:102CD00046C084E0809394040E944F118091E100EB
:102CE00083FF24C08091E20083FF20C08091E10037
:102CF000877F8093E10082E0809394041092900497
:102D00008091E1008E7F8093E1008091E2008E7FD0
:102D10008093E2008091E20080618093E20042E0D3
:102D200060E080E00E947E120E948D0FFF91EF9183
:102D3000BF91AF919F918F917F916F915F914F91D3
:102D40003F912F910F900BBE0F900FBE0F901F90D1
:102D5000189519BC109294040E948A0F75CF809127
:102D6000E30087FD02C081E0B5CF83E0B3CF0895D3
:102D7000CF9380919404882399F0C091E900CF709B
:102D80008091EC0080FD0EC080E0C82B1092E9001D
:102D90008091E80083FD0E940C14CF70C093E9007D
:102DA000CF91089580E8F1CF90936B0480936A04EB
:102DB0000895E0916A04F0916B04309721F001903E
:102DC000F081E02D099480E00895E0916A04F0918B
:102DD0006B04309721F00280F381E02D099408956F
:102DE00020916804309169042817390771F0909395
:102DF000690480936804E0916A04F0916B04309751
:102E000021F00680F781E02D099408952091660451
:102E1000309167042817390771F090936704809305
:102E20006604E0916A04F0916B04309721F000840D
:102E3000F185E02D099408950C94C7170E94F81AA3
:102E40000C94E1078F929F92AF92BF92CF92DF9244
:102E5000EF92FF920F931F93CF93DF9300D000D098
:102E60001F92CDB7DEB70E94A80E2DE6E22E24E019
:102E7000F22E10E0812F0E94E8074C01F701A0809C
:102E8000B180A816B906C9F180918B0481FD0E941A
:102E9000DB1700E0CC24C394D12CA824B924C501AD
:102EA0008C219D21892B21F109831A8321E0C40102
:102EB0008C219D21892B09F420E02B830E94011B8A
:102EC0008160782F9D838C8349815A816B818D81AC
:102ED0000E94621949815A816B817C818D810E9497
:102EE0009A1AF701808191818C259D259183808399
:102EF0000F5FCC0CDD1C003191F61F5FF2E0EF0E8E
:102F0000F11C183009F0B6CF8FEF89838A831B82BA
:102F10000E94011B8160782F9D838C8349815A8197
:102F20006B818D810E9462190E94991A0E94D916A4
:102F300090916C048917B9F00E94D91680936C04A3
:102F40000F900F900F900F900F90DF91CF911F91E6
:102F50000F91FF90EF90DF90CF90BF90AF909F9038
:102F60008F900C94A91A0F900F900F900F900F90C4
:102F7000DF91CF911F910F91FF90EF90DF90CF9055
:102F8000BF90AF909F908F9008950C941F08089564
:102F9000CF93C62F0E94E80721E030E002C0220F45
:102FA000331FCA95E2F72823392381E0232B09F444
:102FB00080E0CF910895089508950895882309F435
:102FC000BBC09CEF980F913A20F40E94EC190C942E
:102FD000D61990E2980F983050F4877091E001C0B4
:102FE000990F8A95EAF7892F0E94291AF0CF9BE55D
:102FF000980F933070F4853A31F0863A39F083E8CF
:1030000090E00C94F01681E890E0FBCF82E890E02D
:10301000F8CF98E5980F973108F08EC0883A09F4F8
:1030200046C0893A09F446C08A3A09F446C08B3A48
:1030300009F446C08C3A09F446C08D3A09F446C0FA
:103040008E3A09F446C08F3A09F446C0813B09F430
:1030500046C0803B09F446C0823B09F446C0833B2E
:1030600009F446C0843B09F446C0853B09F446C0D8
:10307000863B09F446C0873B09F446C0883B09F407
:1030800046C0893B09F446C08A3B09F446C08B3BE5
:1030900009F446C08C3B09F446C08D3B09F446C098
:1030A0008E3B09F446C090E080E00C94061782EE57
:1030B00090E0FBCF89EE90E0F8CF8AEE90E0F5CF7C
:1030C00085EB90E0F2CF86EB90E0EFCF83EB90E0E2
:1030D000ECCF84EB90E0E9CF87EB90E0E6CF8CEC8F
:1030E00090E0E3CF8DEC90E0E0CF83E891E0DDCF9E
:1030F0008AE891E0DACF82E991E0D7CF84E991E0E4
:10310000D4CF81E292E0D1CF83E292E0CECF84E2CD
:1031100092E0CBCF85E292E0C8CF86E292E0C5CFC5
:1031200087E292E0C2CF8AE292E0BFCF8FE690E0E2
:10313000BCCF80E790E0B9CF0895882329F19CEFB8
:10314000980F913A20F40E94091A0C94D61990E233
:10315000980F983050F4877091E001C0990F8A95CC
:10316000EAF7892F0E942F1AF0CF9BE5980F933032
:1031700020F490E080E00C94F016885A873120F417
:1031800090E080E00C94061708950E94481A0E946F
:103190001B1A0C94D6190E94371A0C94C518FF926A
:1031A0000F931F93CF93DF9300D000D01F92CDB722
:1031B000DEB78C010E94AB1A81112DC085E0F801A9
:1031C000DE01119601900D928A95E1F7F801408198
:1031D00051812381348181E02115310531F05F3F38
:1031E00019F481E04F3F09F080E080FD14C0F80140
:1031F000028149835A830B83722F3D832C83602F76
:103200008D810E949D19F82E892F82958F708230B2
:1032100068F08E30D9F10F900F900F900F900F90B3
:10322000DF91CF911F910F91FF900895192F1F707B
:10323000907F11F01295107F0023A1F0112329F047
:10324000812F0E943A1A0E94D6198F2D0F900F904D
:103250000F900F900F90DF91CF911F910F91FF90E2
:103260000C94DE178F2D0E949D181123A1F2812F3F
:103270000E94401A0F900F900F900F900F90DF91C7
:10328000CF911F910F91FF900C94D619F110C3CFDD
:10329000002309F4C0CF0E94CB18FFEF20E782E0A3
:1032A000F15020408040E1F700C000000F900F90E7
:1032B0000F900F900F90DF91CF911F910F91FF9082
:1032C0000C944E1BCF93DF93CDB7DEB72A970FB682
:1032D000F894DEBF0FBECDBF942F4E83252F5F83A2
:1032E000688779878A8749855A8581E0452B31F03F
:1032F0002F3F19F481E09F3F09F080E080FD07C077
:103300004E815F81688579858A850E949A1A85E059
:10331000FE013696DE01119601900D928A95E1F735
:10332000CE0101960E94CF182A960FB6F894DEBF00
:103330000FBECDBFDF91CF910895CF93DF9300D023
:1033400000D01F92CDB7DEB7942F4983252F5A8323
:103350007C838D834C815D8181E0452B31F02F3F53
:1033600019F481E09F3F09F080E080FD15C0609175
:103370007D0470917E0480917F04909180040E946E
:103380004B1A69817A810F900F900F900F900F90D8
:10339000DF91CF910C94F30790E080E00F900F90B5
:1033A0000F900F900F90DF91CF910895E09115034A
:1033B000F091160380918A048083E0911503F091C7
:1033C0001603808190918904892B80838091150355
:1033D000909116030C94E516209115033091160375
:1033E000F90132969FEF40E05191851751F09F3FD0
:1033F00019F4511101C0942F4F5F4630A9F79F3F38
:1034000009F40895290F311D97FD3A95F90182833A
:1034100008952091150330911603F9013296285F23
:103420003F4F9191891303C0DF0111971C92E2175E
:10343000F307B9F7089581E090E0E0911503F0916A
:103440001603E80FF91F1082019688309105A9F73D
:10345000089590918A04892B80938A040895982F67
:10346000909580918A04892380938A04089510920C
:103470008A04089590918904892B80938904089582
:10348000982F9095809189048923809389040895C9
:10349000109289040895CF92DF92EF92FF926C010F
:1034A000EE24FF2420E0C114D104E104F10419F05A
:1034B000C701B60120E1C72ED82EE92EFF24C11482
:1034C000D104E104F10419F0285FC701B6016B01D2
:1034D0007C0154E0F694E794D794C7945A95D1F7B9
:1034E000C114D104E104F10419F02C5FC701B60145
:1034F0006B017C0142E0F694E794D794C7944A9517
:10350000D1F7C114D104E104F10419F02E5FC70111
:10351000B6019695879577956795672B682B692BEC
:1035200009F02F5F822FFF90EF90DF90CF900895EA
:1035300008950895CF93DF9300D000D01F92CDB7A8
:10354000DEB70F900F900F900F900F90DF91CF91FB
:1035500008950C94C51780E0089583B7817F8C602F
:1035600083BF83B7816083BF7894889583B78E7F4C
:1035700083BF0895CF930E94DC170E94A80E0E947B
:10358000DD17C0E08C2F0E94E807892B31F4CF5F54
:10359000C830C1F780E0CF91089581E0FCCF0E9450
:1035A000F1070C94CB181F920F920FB60F921124B3
:1035B0008F939F93AF93BF9380918C0490918D04D0
:1035C000A0918E04B0918F044196A11DB11D8093EE
:1035D0008C0490938D04A0938E04B0938F04BF91BC
:1035E000AF919F918F910F900FBE0F901F901895E4
:1035F00082E084BD93E095BD9AEF97BD80936E0005
:1036000008952FB7F89480918C0490918D04A09127
:103610008E04B0918F042FBF08952FB7F894609156
:103620008C0470918D0480918E0490918F042FBF33
:1036300008959C014FB7F89480918C0490918D046B
:10364000A0918E04B0918F044FBF821B930B0895FD
:1036500078941F920F920FB60F9211248F939F931D
:10366000AF93BF9380918C0490918D04A0918E04B0
:10367000B0918F040196A11DB11D80938C0490938D
:103680008D04A0938E04B0938F04BF91AF919F914E
:103690008F910F900FBE0F901F9018950E94671585
:1036A000F89487E797E7909301088093000887E0F4
:1036B00090EBDC0180939D0490939E04A0939F0463
:1036C000B093A00488E19CE00FB6F894A89580938D
:1036D00060000FBE90936000FFCFEE0FFF1F00242D
:1036E000001C0BBE0790F691E02D0994F894FFCFD3
:1036F00000010001055C030000FF360F3B0F390F8E
:0E3700003A0F800F0181040010000800040041
:00000001FF
